{
	"contracts/Kalkulator.sol": {
		"Kalkulator": {
			"abi": [
				{
					"inputs": [],
					"name": "Add",
					"outputs": [
						{
							"internalType": "int256",
							"name": "",
							"type": "int256"
						}
					],
					"stateMutability": "view",
					"type": "function"
				},
				{
					"inputs": [
						{
							"internalType": "int256",
							"name": "_number",
							"type": "int256"
						}
					],
					"name": "InputNumber1",
					"outputs": [],
					"stateMutability": "nonpayable",
					"type": "function"
				},
				{
					"inputs": [
						{
							"internalType": "int256",
							"name": "_number",
							"type": "int256"
						}
					],
					"name": "InputNumber2",
					"outputs": [],
					"stateMutability": "nonpayable",
					"type": "function"
				},
				{
					"inputs": [],
					"name": "Subtract",
					"outputs": [
						{
							"internalType": "int256",
							"name": "",
							"type": "int256"
						}
					],
					"stateMutability": "view",
					"type": "function"
				}
			],
			"devdoc": {
				"kind": "dev",
				"methods": {},
				"version": 1
			},
			"evm": {
				"assembly": "    /* \"contracts/Kalkulator.sol\":66:467  contract Kalkulator {... */\n  mstore(0x40, 0x80)\n  callvalue\n  dup1\n  iszero\n  tag_1\n  jumpi\n  0x00\n  dup1\n  revert\ntag_1:\n  pop\n  dataSize(sub_0)\n  dup1\n  dataOffset(sub_0)\n  0x00\n  codecopy\n  0x00\n  return\nstop\n\nsub_0: assembly {\n        /* \"contracts/Kalkulator.sol\":66:467  contract Kalkulator {... */\n      mstore(0x40, 0x80)\n      callvalue\n      dup1\n      iszero\n      tag_1\n      jumpi\n      0x00\n      dup1\n      revert\n    tag_1:\n      pop\n      jumpi(tag_2, lt(calldatasize, 0x04))\n      shr(0xe0, calldataload(0x00))\n      dup1\n      0x59b247c6\n      eq\n      tag_3\n      jumpi\n      dup1\n      0x67e06858\n      eq\n      tag_4\n      jumpi\n      dup1\n      0xa4f7a630\n      eq\n      tag_5\n      jumpi\n      dup1\n      0xcf2f354e\n      eq\n      tag_6\n      jumpi\n    tag_2:\n      0x00\n      dup1\n      revert\n        /* \"contracts/Kalkulator.sol\":127:202  function InputNumber1(int _number) public {... */\n    tag_3:\n      tag_7\n      0x04\n      dup1\n      calldatasize\n      sub\n      dup2\n      add\n      swap1\n      tag_8\n      swap2\n      swap1\n      tag_9\n      jump\t// in\n    tag_8:\n      tag_10\n      jump\t// in\n    tag_7:\n      stop\n        /* \"contracts/Kalkulator.sol\":290:372  function Add() public view returns (int) {... */\n    tag_4:\n      tag_11\n      tag_12\n      jump\t// in\n    tag_11:\n      mload(0x40)\n      tag_13\n      swap2\n      swap1\n      tag_14\n      jump\t// in\n    tag_13:\n      mload(0x40)\n      dup1\n      swap2\n      sub\n      swap1\n      return\n        /* \"contracts/Kalkulator.sol\":378:465  function Subtract() public view returns (int) {... */\n    tag_5:\n      tag_15\n      tag_16\n      jump\t// in\n    tag_15:\n      mload(0x40)\n      tag_17\n      swap2\n      swap1\n      tag_14\n      jump\t// in\n    tag_17:\n      mload(0x40)\n      dup1\n      swap2\n      sub\n      swap1\n      return\n        /* \"contracts/Kalkulator.sol\":209:284  function InputNumber2(int _number) public {... */\n    tag_6:\n      tag_18\n      0x04\n      dup1\n      calldatasize\n      sub\n      dup2\n      add\n      swap1\n      tag_19\n      swap2\n      swap1\n      tag_9\n      jump\t// in\n    tag_19:\n      tag_20\n      jump\t// in\n    tag_18:\n      stop\n        /* \"contracts/Kalkulator.sol\":127:202  function InputNumber1(int _number) public {... */\n    tag_10:\n        /* \"contracts/Kalkulator.sol\":188:195  _number */\n      dup1\n        /* \"contracts/Kalkulator.sol\":179:186  number1 */\n      0x00\n        /* \"contracts/Kalkulator.sol\":179:195  number1 =_number */\n      dup2\n      swap1\n      sstore\n      pop\n        /* \"contracts/Kalkulator.sol\":127:202  function InputNumber1(int _number) public {... */\n      pop\n      jump\t// out\n        /* \"contracts/Kalkulator.sol\":290:372  function Add() public view returns (int) {... */\n    tag_12:\n        /* \"contracts/Kalkulator.sol\":326:329  int */\n      0x00\n        /* \"contracts/Kalkulator.sol\":358:365  number2 */\n      sload(0x01)\n        /* \"contracts/Kalkulator.sol\":348:355  number1 */\n      sload(0x00)\n        /* \"contracts/Kalkulator.sol\":348:365  number1 + number2 */\n      tag_23\n      swap2\n      swap1\n      tag_24\n      jump\t// in\n    tag_23:\n        /* \"contracts/Kalkulator.sol\":341:365  return number1 + number2 */\n      swap1\n      pop\n        /* \"contracts/Kalkulator.sol\":290:372  function Add() public view returns (int) {... */\n      swap1\n      jump\t// out\n        /* \"contracts/Kalkulator.sol\":378:465  function Subtract() public view returns (int) {... */\n    tag_16:\n        /* \"contracts/Kalkulator.sol\":419:422  int */\n      0x00\n        /* \"contracts/Kalkulator.sol\":451:458  number2 */\n      sload(0x01)\n        /* \"contracts/Kalkulator.sol\":441:448  number1 */\n      sload(0x00)\n        /* \"contracts/Kalkulator.sol\":441:458  number1 - number2 */\n      tag_26\n      swap2\n      swap1\n      tag_27\n      jump\t// in\n    tag_26:\n        /* \"contracts/Kalkulator.sol\":434:458  return number1 - number2 */\n      swap1\n      pop\n        /* \"contracts/Kalkulator.sol\":378:465  function Subtract() public view returns (int) {... */\n      swap1\n      jump\t// out\n        /* \"contracts/Kalkulator.sol\":209:284  function InputNumber2(int _number) public {... */\n    tag_20:\n        /* \"contracts/Kalkulator.sol\":270:277  _number */\n      dup1\n        /* \"contracts/Kalkulator.sol\":261:268  number2 */\n      0x01\n        /* \"contracts/Kalkulator.sol\":261:277  number2 =_number */\n      dup2\n      swap1\n      sstore\n      pop\n        /* \"contracts/Kalkulator.sol\":209:284  function InputNumber2(int _number) public {... */\n      pop\n      jump\t// out\n        /* \"#utility.yul\":88:205   */\n    tag_30:\n        /* \"#utility.yul\":197:198   */\n      0x00\n        /* \"#utility.yul\":194:195   */\n      dup1\n        /* \"#utility.yul\":187:199   */\n      revert\n        /* \"#utility.yul\":334:410   */\n    tag_32:\n        /* \"#utility.yul\":370:377   */\n      0x00\n        /* \"#utility.yul\":399:404   */\n      dup2\n        /* \"#utility.yul\":388:404   */\n      swap1\n      pop\n        /* \"#utility.yul\":334:410   */\n      swap2\n      swap1\n      pop\n      jump\t// out\n        /* \"#utility.yul\":416:536   */\n    tag_33:\n        /* \"#utility.yul\":488:511   */\n      tag_43\n        /* \"#utility.yul\":505:510   */\n      dup2\n        /* \"#utility.yul\":488:511   */\n      tag_32\n      jump\t// in\n    tag_43:\n        /* \"#utility.yul\":481:486   */\n      dup2\n        /* \"#utility.yul\":478:512   */\n      eq\n        /* \"#utility.yul\":468:530   */\n      tag_44\n      jumpi\n        /* \"#utility.yul\":526:527   */\n      0x00\n        /* \"#utility.yul\":523:524   */\n      dup1\n        /* \"#utility.yul\":516:528   */\n      revert\n        /* \"#utility.yul\":468:530   */\n    tag_44:\n        /* \"#utility.yul\":416:536   */\n      pop\n      jump\t// out\n        /* \"#utility.yul\":542:679   */\n    tag_34:\n        /* \"#utility.yul\":587:592   */\n      0x00\n        /* \"#utility.yul\":625:631   */\n      dup2\n        /* \"#utility.yul\":612:632   */\n      calldataload\n        /* \"#utility.yul\":603:632   */\n      swap1\n      pop\n        /* \"#utility.yul\":641:673   */\n      tag_46\n        /* \"#utility.yul\":667:672   */\n      dup2\n        /* \"#utility.yul\":641:673   */\n      tag_33\n      jump\t// in\n    tag_46:\n        /* \"#utility.yul\":542:679   */\n      swap3\n      swap2\n      pop\n      pop\n      jump\t// out\n        /* \"#utility.yul\":685:1012   */\n    tag_9:\n        /* \"#utility.yul\":743:749   */\n      0x00\n        /* \"#utility.yul\":792:794   */\n      0x20\n        /* \"#utility.yul\":780:789   */\n      dup3\n        /* \"#utility.yul\":771:778   */\n      dup5\n        /* \"#utility.yul\":767:790   */\n      sub\n        /* \"#utility.yul\":763:795   */\n      slt\n        /* \"#utility.yul\":760:879   */\n      iszero\n      tag_48\n      jumpi\n        /* \"#utility.yul\":798:877   */\n      tag_49\n      tag_30\n      jump\t// in\n    tag_49:\n        /* \"#utility.yul\":760:879   */\n    tag_48:\n        /* \"#utility.yul\":918:919   */\n      0x00\n        /* \"#utility.yul\":943:995   */\n      tag_50\n        /* \"#utility.yul\":987:994   */\n      dup5\n        /* \"#utility.yul\":978:984   */\n      dup3\n        /* \"#utility.yul\":967:976   */\n      dup6\n        /* \"#utility.yul\":963:985   */\n      add\n        /* \"#utility.yul\":943:995   */\n      tag_34\n      jump\t// in\n    tag_50:\n        /* \"#utility.yul\":933:995   */\n      swap2\n      pop\n        /* \"#utility.yul\":889:1005   */\n      pop\n        /* \"#utility.yul\":685:1012   */\n      swap3\n      swap2\n      pop\n      pop\n      jump\t// out\n        /* \"#utility.yul\":1018:1133   */\n    tag_35:\n        /* \"#utility.yul\":1103:1126   */\n      tag_52\n        /* \"#utility.yul\":1120:1125   */\n      dup2\n        /* \"#utility.yul\":1103:1126   */\n      tag_32\n      jump\t// in\n    tag_52:\n        /* \"#utility.yul\":1098:1101   */\n      dup3\n        /* \"#utility.yul\":1091:1127   */\n      mstore\n        /* \"#utility.yul\":1018:1133   */\n      pop\n      pop\n      jump\t// out\n        /* \"#utility.yul\":1139:1357   */\n    tag_14:\n        /* \"#utility.yul\":1230:1234   */\n      0x00\n        /* \"#utility.yul\":1268:1270   */\n      0x20\n        /* \"#utility.yul\":1257:1266   */\n      dup3\n        /* \"#utility.yul\":1253:1271   */\n      add\n        /* \"#utility.yul\":1245:1271   */\n      swap1\n      pop\n        /* \"#utility.yul\":1281:1350   */\n      tag_54\n        /* \"#utility.yul\":1347:1348   */\n      0x00\n        /* \"#utility.yul\":1336:1345   */\n      dup4\n        /* \"#utility.yul\":1332:1349   */\n      add\n        /* \"#utility.yul\":1323:1329   */\n      dup5\n        /* \"#utility.yul\":1281:1350   */\n      tag_35\n      jump\t// in\n    tag_54:\n        /* \"#utility.yul\":1139:1357   */\n      swap3\n      swap2\n      pop\n      pop\n      jump\t// out\n        /* \"#utility.yul\":1363:1543   */\n    tag_36:\n        /* \"#utility.yul\":1411:1488   */\n      0x4e487b7100000000000000000000000000000000000000000000000000000000\n        /* \"#utility.yul\":1408:1409   */\n      0x00\n        /* \"#utility.yul\":1401:1489   */\n      mstore\n        /* \"#utility.yul\":1508:1512   */\n      0x11\n        /* \"#utility.yul\":1505:1506   */\n      0x04\n        /* \"#utility.yul\":1498:1513   */\n      mstore\n        /* \"#utility.yul\":1532:1536   */\n      0x24\n        /* \"#utility.yul\":1529:1530   */\n      0x00\n        /* \"#utility.yul\":1522:1537   */\n      revert\n        /* \"#utility.yul\":1549:2074   */\n    tag_24:\n        /* \"#utility.yul\":1588:1591   */\n      0x00\n        /* \"#utility.yul\":1607:1626   */\n      tag_57\n        /* \"#utility.yul\":1624:1625   */\n      dup3\n        /* \"#utility.yul\":1607:1626   */\n      tag_32\n      jump\t// in\n    tag_57:\n        /* \"#utility.yul\":1602:1626   */\n      swap2\n      pop\n        /* \"#utility.yul\":1640:1659   */\n      tag_58\n        /* \"#utility.yul\":1657:1658   */\n      dup4\n        /* \"#utility.yul\":1640:1659   */\n      tag_32\n      jump\t// in\n    tag_58:\n        /* \"#utility.yul\":1635:1659   */\n      swap3\n      pop\n        /* \"#utility.yul\":1828:1829   */\n      dup2\n        /* \"#utility.yul\":1760:1826   */\n      0x7fffffffffffffffffffffffffffffffffffffffffffffffffffffffffffffff\n        /* \"#utility.yul\":1756:1830   */\n      sub\n        /* \"#utility.yul\":1753:1754   */\n      dup4\n        /* \"#utility.yul\":1749:1831   */\n      sgt\n        /* \"#utility.yul\":1744:1745   */\n      0x00\n        /* \"#utility.yul\":1741:1742   */\n      dup4\n        /* \"#utility.yul\":1737:1746   */\n      slt\n        /* \"#utility.yul\":1730:1747   */\n      iszero\n        /* \"#utility.yul\":1726:1832   */\n      and\n        /* \"#utility.yul\":1723:1855   */\n      iszero\n      tag_59\n      jumpi\n        /* \"#utility.yul\":1835:1853   */\n      tag_60\n      tag_36\n      jump\t// in\n    tag_60:\n        /* \"#utility.yul\":1723:1855   */\n    tag_59:\n        /* \"#utility.yul\":2015:2016   */\n      dup2\n        /* \"#utility.yul\":1947:2013   */\n      0x8000000000000000000000000000000000000000000000000000000000000000\n        /* \"#utility.yul\":1943:2017   */\n      sub\n        /* \"#utility.yul\":1940:1941   */\n      dup4\n        /* \"#utility.yul\":1936:2018   */\n      slt\n        /* \"#utility.yul\":1932:1933   */\n      0x00\n        /* \"#utility.yul\":1929:1930   */\n      dup4\n        /* \"#utility.yul\":1925:1934   */\n      slt\n        /* \"#utility.yul\":1921:2019   */\n      and\n        /* \"#utility.yul\":1918:2042   */\n      iszero\n      tag_61\n      jumpi\n        /* \"#utility.yul\":2022:2040   */\n      tag_62\n      tag_36\n      jump\t// in\n    tag_62:\n        /* \"#utility.yul\":1918:2042   */\n    tag_61:\n        /* \"#utility.yul\":2066:2067   */\n      dup3\n        /* \"#utility.yul\":2063:2064   */\n      dup3\n        /* \"#utility.yul\":2059:2068   */\n      add\n        /* \"#utility.yul\":2052:2068   */\n      swap1\n      pop\n        /* \"#utility.yul\":1549:2074   */\n      swap3\n      swap2\n      pop\n      pop\n      jump\t// out\n        /* \"#utility.yul\":2080:2607   */\n    tag_27:\n        /* \"#utility.yul\":2119:2123   */\n      0x00\n        /* \"#utility.yul\":2139:2158   */\n      tag_64\n        /* \"#utility.yul\":2156:2157   */\n      dup3\n        /* \"#utility.yul\":2139:2158   */\n      tag_32\n      jump\t// in\n    tag_64:\n        /* \"#utility.yul\":2134:2158   */\n      swap2\n      pop\n        /* \"#utility.yul\":2172:2191   */\n      tag_65\n        /* \"#utility.yul\":2189:2190   */\n      dup4\n        /* \"#utility.yul\":2172:2191   */\n      tag_32\n      jump\t// in\n    tag_65:\n        /* \"#utility.yul\":2167:2191   */\n      swap3\n      pop\n        /* \"#utility.yul\":2361:2362   */\n      dup3\n        /* \"#utility.yul\":2293:2359   */\n      0x8000000000000000000000000000000000000000000000000000000000000000\n        /* \"#utility.yul\":2289:2363   */\n      add\n        /* \"#utility.yul\":2286:2287   */\n      dup3\n        /* \"#utility.yul\":2282:2364   */\n      slt\n        /* \"#utility.yul\":2277:2278   */\n      0x00\n        /* \"#utility.yul\":2274:2275   */\n      dup5\n        /* \"#utility.yul\":2270:2279   */\n      slt\n        /* \"#utility.yul\":2263:2280   */\n      iszero\n        /* \"#utility.yul\":2259:2365   */\n      and\n        /* \"#utility.yul\":2256:2388   */\n      iszero\n      tag_66\n      jumpi\n        /* \"#utility.yul\":2368:2386   */\n      tag_67\n      tag_36\n      jump\t// in\n    tag_67:\n        /* \"#utility.yul\":2256:2388   */\n    tag_66:\n        /* \"#utility.yul\":2547:2548   */\n      dup3\n        /* \"#utility.yul\":2479:2545   */\n      0x7fffffffffffffffffffffffffffffffffffffffffffffffffffffffffffffff\n        /* \"#utility.yul\":2475:2549   */\n      add\n        /* \"#utility.yul\":2472:2473   */\n      dup3\n        /* \"#utility.yul\":2468:2550   */\n      sgt\n        /* \"#utility.yul\":2464:2465   */\n      0x00\n        /* \"#utility.yul\":2461:2462   */\n      dup5\n        /* \"#utility.yul\":2457:2466   */\n      slt\n        /* \"#utility.yul\":2453:2551   */\n      and\n        /* \"#utility.yul\":2450:2574   */\n      iszero\n      tag_68\n      jumpi\n        /* \"#utility.yul\":2554:2572   */\n      tag_69\n      tag_36\n      jump\t// in\n    tag_69:\n        /* \"#utility.yul\":2450:2574   */\n    tag_68:\n        /* \"#utility.yul\":2599:2600   */\n      dup3\n        /* \"#utility.yul\":2596:2597   */\n      dup3\n        /* \"#utility.yul\":2592:2601   */\n      sub\n        /* \"#utility.yul\":2584:2601   */\n      swap1\n      pop\n        /* \"#utility.yul\":2080:2607   */\n      swap3\n      swap2\n      pop\n      pop\n      jump\t// out\n\n    auxdata: 0xa2646970667358221220a6a0d5f9376a09c8175280017d4a02d940ab9592006a1ef29334e5d74716107364736f6c634300080d0033\n}\n",
				"bytecode": {
					"linkReferences": {},
					"object": "608060405234801561001057600080fd5b50610326806100206000396000f3fe608060405234801561001057600080fd5b506004361061004c5760003560e01c806359b247c61461005157806367e068581461006d578063a4f7a6301461008b578063cf2f354e146100a9575b600080fd5b61006b60048036038101906100669190610142565b6100c5565b005b6100756100cf565b604051610082919061017e565b60405180910390f35b6100936100e6565b6040516100a0919061017e565b60405180910390f35b6100c360048036038101906100be9190610142565b6100fd565b005b8060008190555050565b60006001546000546100e191906101c8565b905090565b60006001546000546100f8919061025c565b905090565b8060018190555050565b600080fd5b6000819050919050565b61011f8161010c565b811461012a57600080fd5b50565b60008135905061013c81610116565b92915050565b60006020828403121561015857610157610107565b5b60006101668482850161012d565b91505092915050565b6101788161010c565b82525050565b6000602082019050610193600083018461016f565b92915050565b7f4e487b7100000000000000000000000000000000000000000000000000000000600052601160045260246000fd5b60006101d38261010c565b91506101de8361010c565b9250817f7fffffffffffffffffffffffffffffffffffffffffffffffffffffffffffffff0383136000831215161561021957610218610199565b5b817f800000000000000000000000000000000000000000000000000000000000000003831260008312161561025157610250610199565b5b828201905092915050565b60006102678261010c565b91506102728361010c565b9250827f8000000000000000000000000000000000000000000000000000000000000000018212600084121516156102ad576102ac610199565b5b827f7fffffffffffffffffffffffffffffffffffffffffffffffffffffffffffffff0182136000841216156102e5576102e4610199565b5b82820390509291505056fea2646970667358221220a6a0d5f9376a09c8175280017d4a02d940ab9592006a1ef29334e5d74716107364736f6c634300080d0033",
					"opcodes": "PUSH1 0x80 PUSH1 0x40 MSTORE CALLVALUE DUP1 ISZERO PUSH2 0x10 JUMPI PUSH1 0x0 DUP1 REVERT JUMPDEST POP PUSH2 0x326 DUP1 PUSH2 0x20 PUSH1 0x0 CODECOPY PUSH1 0x0 RETURN INVALID PUSH1 0x80 PUSH1 0x40 MSTORE CALLVALUE DUP1 ISZERO PUSH2 0x10 JUMPI PUSH1 0x0 DUP1 REVERT JUMPDEST POP PUSH1 0x4 CALLDATASIZE LT PUSH2 0x4C JUMPI PUSH1 0x0 CALLDATALOAD PUSH1 0xE0 SHR DUP1 PUSH4 0x59B247C6 EQ PUSH2 0x51 JUMPI DUP1 PUSH4 0x67E06858 EQ PUSH2 0x6D JUMPI DUP1 PUSH4 0xA4F7A630 EQ PUSH2 0x8B JUMPI DUP1 PUSH4 0xCF2F354E EQ PUSH2 0xA9 JUMPI JUMPDEST PUSH1 0x0 DUP1 REVERT JUMPDEST PUSH2 0x6B PUSH1 0x4 DUP1 CALLDATASIZE SUB DUP2 ADD SWAP1 PUSH2 0x66 SWAP2 SWAP1 PUSH2 0x142 JUMP JUMPDEST PUSH2 0xC5 JUMP JUMPDEST STOP JUMPDEST PUSH2 0x75 PUSH2 0xCF JUMP JUMPDEST PUSH1 0x40 MLOAD PUSH2 0x82 SWAP2 SWAP1 PUSH2 0x17E JUMP JUMPDEST PUSH1 0x40 MLOAD DUP1 SWAP2 SUB SWAP1 RETURN JUMPDEST PUSH2 0x93 PUSH2 0xE6 JUMP JUMPDEST PUSH1 0x40 MLOAD PUSH2 0xA0 SWAP2 SWAP1 PUSH2 0x17E JUMP JUMPDEST PUSH1 0x40 MLOAD DUP1 SWAP2 SUB SWAP1 RETURN JUMPDEST PUSH2 0xC3 PUSH1 0x4 DUP1 CALLDATASIZE SUB DUP2 ADD SWAP1 PUSH2 0xBE SWAP2 SWAP1 PUSH2 0x142 JUMP JUMPDEST PUSH2 0xFD JUMP JUMPDEST STOP JUMPDEST DUP1 PUSH1 0x0 DUP2 SWAP1 SSTORE POP POP JUMP JUMPDEST PUSH1 0x0 PUSH1 0x1 SLOAD PUSH1 0x0 SLOAD PUSH2 0xE1 SWAP2 SWAP1 PUSH2 0x1C8 JUMP JUMPDEST SWAP1 POP SWAP1 JUMP JUMPDEST PUSH1 0x0 PUSH1 0x1 SLOAD PUSH1 0x0 SLOAD PUSH2 0xF8 SWAP2 SWAP1 PUSH2 0x25C JUMP JUMPDEST SWAP1 POP SWAP1 JUMP JUMPDEST DUP1 PUSH1 0x1 DUP2 SWAP1 SSTORE POP POP JUMP JUMPDEST PUSH1 0x0 DUP1 REVERT JUMPDEST PUSH1 0x0 DUP2 SWAP1 POP SWAP2 SWAP1 POP JUMP JUMPDEST PUSH2 0x11F DUP2 PUSH2 0x10C JUMP JUMPDEST DUP2 EQ PUSH2 0x12A JUMPI PUSH1 0x0 DUP1 REVERT JUMPDEST POP JUMP JUMPDEST PUSH1 0x0 DUP2 CALLDATALOAD SWAP1 POP PUSH2 0x13C DUP2 PUSH2 0x116 JUMP JUMPDEST SWAP3 SWAP2 POP POP JUMP JUMPDEST PUSH1 0x0 PUSH1 0x20 DUP3 DUP5 SUB SLT ISZERO PUSH2 0x158 JUMPI PUSH2 0x157 PUSH2 0x107 JUMP JUMPDEST JUMPDEST PUSH1 0x0 PUSH2 0x166 DUP5 DUP3 DUP6 ADD PUSH2 0x12D JUMP JUMPDEST SWAP2 POP POP SWAP3 SWAP2 POP POP JUMP JUMPDEST PUSH2 0x178 DUP2 PUSH2 0x10C JUMP JUMPDEST DUP3 MSTORE POP POP JUMP JUMPDEST PUSH1 0x0 PUSH1 0x20 DUP3 ADD SWAP1 POP PUSH2 0x193 PUSH1 0x0 DUP4 ADD DUP5 PUSH2 0x16F JUMP JUMPDEST SWAP3 SWAP2 POP POP JUMP JUMPDEST PUSH32 0x4E487B7100000000000000000000000000000000000000000000000000000000 PUSH1 0x0 MSTORE PUSH1 0x11 PUSH1 0x4 MSTORE PUSH1 0x24 PUSH1 0x0 REVERT JUMPDEST PUSH1 0x0 PUSH2 0x1D3 DUP3 PUSH2 0x10C JUMP JUMPDEST SWAP2 POP PUSH2 0x1DE DUP4 PUSH2 0x10C JUMP JUMPDEST SWAP3 POP DUP2 PUSH32 0x7FFFFFFFFFFFFFFFFFFFFFFFFFFFFFFFFFFFFFFFFFFFFFFFFFFFFFFFFFFFFFFF SUB DUP4 SGT PUSH1 0x0 DUP4 SLT ISZERO AND ISZERO PUSH2 0x219 JUMPI PUSH2 0x218 PUSH2 0x199 JUMP JUMPDEST JUMPDEST DUP2 PUSH32 0x8000000000000000000000000000000000000000000000000000000000000000 SUB DUP4 SLT PUSH1 0x0 DUP4 SLT AND ISZERO PUSH2 0x251 JUMPI PUSH2 0x250 PUSH2 0x199 JUMP JUMPDEST JUMPDEST DUP3 DUP3 ADD SWAP1 POP SWAP3 SWAP2 POP POP JUMP JUMPDEST PUSH1 0x0 PUSH2 0x267 DUP3 PUSH2 0x10C JUMP JUMPDEST SWAP2 POP PUSH2 0x272 DUP4 PUSH2 0x10C JUMP JUMPDEST SWAP3 POP DUP3 PUSH32 0x8000000000000000000000000000000000000000000000000000000000000000 ADD DUP3 SLT PUSH1 0x0 DUP5 SLT ISZERO AND ISZERO PUSH2 0x2AD JUMPI PUSH2 0x2AC PUSH2 0x199 JUMP JUMPDEST JUMPDEST DUP3 PUSH32 0x7FFFFFFFFFFFFFFFFFFFFFFFFFFFFFFFFFFFFFFFFFFFFFFFFFFFFFFFFFFFFFFF ADD DUP3 SGT PUSH1 0x0 DUP5 SLT AND ISZERO PUSH2 0x2E5 JUMPI PUSH2 0x2E4 PUSH2 0x199 JUMP JUMPDEST JUMPDEST DUP3 DUP3 SUB SWAP1 POP SWAP3 SWAP2 POP POP JUMP INVALID LOG2 PUSH5 0x6970667358 0x22 SLT KECCAK256 0xA6 LOG0 0xD5 0xF9 CALLDATACOPY PUSH11 0x9C8175280017D4A02D940 0xAB SWAP6 SWAP3 STOP PUSH11 0x1EF29334E5D74716107364 PUSH20 0x6F6C634300080D00330000000000000000000000 "
				},
				"gasEstimates": {
					"creation": {
						"codeDepositCost": "161200",
						"executionCost": "208",
						"totalCost": "161408"
					},
					"external": {
						"Add()": "infinite",
						"InputNumber1(int256)": "22498",
						"InputNumber2(int256)": "22564",
						"Subtract()": "infinite"
					}
				},
				"methodIdentifiers": {
					"Add()": "67e06858",
					"InputNumber1(int256)": "59b247c6",
					"InputNumber2(int256)": "cf2f354e",
					"Subtract()": "a4f7a630"
				}
			},
			"storageLayout": {
				"storage": [
					{
						"astId": 3,
						"contract": "contracts/Kalkulator.sol:Kalkulator",
						"label": "number1",
						"offset": 0,
						"slot": "0",
						"type": "t_int256"
					},
					{
						"astId": 5,
						"contract": "contracts/Kalkulator.sol:Kalkulator",
						"label": "number2",
						"offset": 0,
						"slot": "1",
						"type": "t_int256"
					}
				],
				"types": {
					"t_int256": {
						"encoding": "inplace",
						"label": "int256",
						"numberOfBytes": "32"
					}
				}
			},
			"userdoc": {
				"kind": "user",
				"methods": {},
				"version": 1
			}
		}
	}
}