{
	"contracts/DataKaryawan.sol": {
		"DataStringbytes32": {
			"abi": [
				{
					"inputs": [],
					"stateMutability": "nonpayable",
					"type": "constructor"
				},
				{
					"inputs": [
						{
							"internalType": "string",
							"name": "_str",
							"type": "string"
						}
					],
					"name": "checkData",
					"outputs": [
						{
							"internalType": "bool",
							"name": "",
							"type": "bool"
						}
					],
					"stateMutability": "view",
					"type": "function"
				},
				{
					"inputs": [
						{
							"internalType": "bytes32",
							"name": "",
							"type": "bytes32"
						}
					],
					"name": "dataMapping",
					"outputs": [
						{
							"internalType": "string",
							"name": "name",
							"type": "string"
						},
						{
							"internalType": "string",
							"name": "status",
							"type": "string"
						},
						{
							"internalType": "bool",
							"name": "isValue",
							"type": "bool"
						}
					],
					"stateMutability": "view",
					"type": "function"
				},
				{
					"inputs": [
						{
							"internalType": "string",
							"name": "_str",
							"type": "string"
						}
					],
					"name": "inputString",
					"outputs": [],
					"stateMutability": "nonpayable",
					"type": "function"
				}
			],
			"devdoc": {
				"kind": "dev",
				"methods": {},
				"version": 1
			},
			"evm": {
				"assembly": "    /* \"contracts/DataKaryawan.sol\":57:1046  contract DataStringbytes32 {... */\n  mstore(0x40, 0x80)\n    /* \"contracts/DataKaryawan.sol\":209:264  constructor(){... */\n  callvalue\n  dup1\n  iszero\n  tag_1\n  jumpi\n  0x00\n  dup1\n  revert\ntag_1:\n  pop\n    /* \"contracts/DataKaryawan.sol\":247:257  msg.sender */\n  caller\n    /* \"contracts/DataKaryawan.sol\":232:244  ownerAddress */\n  0x00\n  dup1\n    /* \"contracts/DataKaryawan.sol\":232:257  ownerAddress = msg.sender */\n  0x0100\n  exp\n  dup2\n  sload\n  dup2\n  0xffffffffffffffffffffffffffffffffffffffff\n  mul\n  not\n  and\n  swap1\n  dup4\n  0xffffffffffffffffffffffffffffffffffffffff\n  and\n  mul\n  or\n  swap1\n  sstore\n  pop\n    /* \"contracts/DataKaryawan.sol\":57:1046  contract DataStringbytes32 {... */\n  dataSize(sub_0)\n  dup1\n  dataOffset(sub_0)\n  0x00\n  codecopy\n  0x00\n  return\nstop\n\nsub_0: assembly {\n        /* \"contracts/DataKaryawan.sol\":57:1046  contract DataStringbytes32 {... */\n      mstore(0x40, 0x80)\n      callvalue\n      dup1\n      iszero\n      tag_1\n      jumpi\n      0x00\n      dup1\n      revert\n    tag_1:\n      pop\n      jumpi(tag_2, lt(calldatasize, 0x04))\n      shr(0xe0, calldataload(0x00))\n      dup1\n      0x95d8cc9c\n      eq\n      tag_3\n      jumpi\n      dup1\n      0xace18851\n      eq\n      tag_4\n      jumpi\n      dup1\n      0xd55c5d50\n      eq\n      tag_5\n      jumpi\n    tag_2:\n      0x00\n      dup1\n      revert\n        /* \"contracts/DataKaryawan.sol\":675:786  function inputString(string memory _str) public onlyOwner {... */\n    tag_3:\n      tag_6\n      0x04\n      dup1\n      calldatasize\n      sub\n      dup2\n      add\n      swap1\n      tag_7\n      swap2\n      swap1\n      tag_8\n      jump\t// in\n    tag_7:\n      tag_9\n      jump\t// in\n    tag_6:\n      stop\n        /* \"contracts/DataKaryawan.sol\":914:1043  function checkData(string memory _str) public view returns (bool) {... */\n    tag_4:\n      tag_10\n      0x04\n      dup1\n      calldatasize\n      sub\n      dup2\n      add\n      swap1\n      tag_11\n      swap2\n      swap1\n      tag_8\n      jump\t// in\n    tag_11:\n      tag_12\n      jump\t// in\n    tag_10:\n      mload(0x40)\n      tag_13\n      swap2\n      swap1\n      tag_14\n      jump\t// in\n    tag_13:\n      mload(0x40)\n      dup1\n      swap2\n      sub\n      swap1\n      return\n        /* \"contracts/DataKaryawan.sol\":404:448  mapping (bytes32 => data) public dataMapping */\n    tag_5:\n      tag_15\n      0x04\n      dup1\n      calldatasize\n      sub\n      dup2\n      add\n      swap1\n      tag_16\n      swap2\n      swap1\n      tag_17\n      jump\t// in\n    tag_16:\n      tag_18\n      jump\t// in\n    tag_15:\n      mload(0x40)\n      tag_19\n      swap4\n      swap3\n      swap2\n      swap1\n      tag_20\n      jump\t// in\n    tag_19:\n      mload(0x40)\n      dup1\n      swap2\n      sub\n      swap1\n      return\n        /* \"contracts/DataKaryawan.sol\":675:786  function inputString(string memory _str) public onlyOwner {... */\n    tag_9:\n        /* \"contracts/DataKaryawan.sol\":321:333  ownerAddress */\n      0x00\n      dup1\n      sload\n      swap1\n      0x0100\n      exp\n      swap1\n      div\n      0xffffffffffffffffffffffffffffffffffffffff\n      and\n        /* \"contracts/DataKaryawan.sol\":307:333  msg.sender == ownerAddress */\n      0xffffffffffffffffffffffffffffffffffffffff\n      and\n        /* \"contracts/DataKaryawan.sol\":307:317  msg.sender */\n      caller\n        /* \"contracts/DataKaryawan.sol\":307:333  msg.sender == ownerAddress */\n      0xffffffffffffffffffffffffffffffffffffffff\n      and\n      eq\n        /* \"contracts/DataKaryawan.sol\":299:380  require(msg.sender == ownerAddress, \"Hanya address owner yang bisa menjalankan!\") */\n      tag_22\n      jumpi\n      mload(0x40)\n      0x08c379a000000000000000000000000000000000000000000000000000000000\n      dup2\n      mstore\n      0x04\n      add\n      tag_23\n      swap1\n      tag_24\n      jump\t// in\n    tag_23:\n      mload(0x40)\n      dup1\n      swap2\n      sub\n      swap1\n      revert\n    tag_22:\n        /* \"contracts/DataKaryawan.sol\":743:779  storeBytes(convertBytes(_str), _str) */\n      tag_26\n        /* \"contracts/DataKaryawan.sol\":754:772  convertBytes(_str) */\n      tag_27\n        /* \"contracts/DataKaryawan.sol\":767:771  _str */\n      dup3\n        /* \"contracts/DataKaryawan.sol\":754:766  convertBytes */\n      tag_28\n        /* \"contracts/DataKaryawan.sol\":754:772  convertBytes(_str) */\n      jump\t// in\n    tag_27:\n        /* \"contracts/DataKaryawan.sol\":774:778  _str */\n      dup3\n        /* \"contracts/DataKaryawan.sol\":743:753  storeBytes */\n      tag_29\n        /* \"contracts/DataKaryawan.sol\":743:779  storeBytes(convertBytes(_str), _str) */\n      jump\t// in\n    tag_26:\n        /* \"contracts/DataKaryawan.sol\":675:786  function inputString(string memory _str) public onlyOwner {... */\n      pop\n      jump\t// out\n        /* \"contracts/DataKaryawan.sol\":914:1043  function checkData(string memory _str) public view returns (bool) {... */\n    tag_12:\n        /* \"contracts/DataKaryawan.sol\":974:978  bool */\n      0x00\n        /* \"contracts/DataKaryawan.sol\":997:1008  dataMapping */\n      0x01\n        /* \"contracts/DataKaryawan.sol\":997:1028  dataMapping[convertBytes(_str)] */\n      0x00\n        /* \"contracts/DataKaryawan.sol\":1009:1027  convertBytes(_str) */\n      tag_31\n        /* \"contracts/DataKaryawan.sol\":1022:1026  _str */\n      dup5\n        /* \"contracts/DataKaryawan.sol\":1009:1021  convertBytes */\n      tag_28\n        /* \"contracts/DataKaryawan.sol\":1009:1027  convertBytes(_str) */\n      jump\t// in\n    tag_31:\n        /* \"contracts/DataKaryawan.sol\":997:1028  dataMapping[convertBytes(_str)] */\n      dup2\n      mstore\n      0x20\n      add\n      swap1\n      dup2\n      mstore\n      0x20\n      add\n      0x00\n      keccak256\n        /* \"contracts/DataKaryawan.sol\":997:1036  dataMapping[convertBytes(_str)].isValue */\n      0x02\n      add\n      0x00\n      swap1\n      sload\n      swap1\n      0x0100\n      exp\n      swap1\n      div\n      0xff\n      and\n        /* \"contracts/DataKaryawan.sol\":990:1036  return dataMapping[convertBytes(_str)].isValue */\n      swap1\n      pop\n        /* \"contracts/DataKaryawan.sol\":914:1043  function checkData(string memory _str) public view returns (bool) {... */\n      swap2\n      swap1\n      pop\n      jump\t// out\n        /* \"contracts/DataKaryawan.sol\":404:448  mapping (bytes32 => data) public dataMapping */\n    tag_18:\n      mstore(0x20, 0x01)\n      dup1\n      0x00\n      mstore\n      keccak256(0x00, 0x40)\n      0x00\n      swap2\n      pop\n      swap1\n      pop\n      dup1\n      0x00\n      add\n      dup1\n      sload\n      tag_32\n      swap1\n      tag_33\n      jump\t// in\n    tag_32:\n      dup1\n      0x1f\n      add\n      0x20\n      dup1\n      swap2\n      div\n      mul\n      0x20\n      add\n      mload(0x40)\n      swap1\n      dup2\n      add\n      0x40\n      mstore\n      dup1\n      swap3\n      swap2\n      swap1\n      dup2\n      dup2\n      mstore\n      0x20\n      add\n      dup3\n      dup1\n      sload\n      tag_34\n      swap1\n      tag_33\n      jump\t// in\n    tag_34:\n      dup1\n      iszero\n      tag_35\n      jumpi\n      dup1\n      0x1f\n      lt\n      tag_36\n      jumpi\n      0x0100\n      dup1\n      dup4\n      sload\n      div\n      mul\n      dup4\n      mstore\n      swap2\n      0x20\n      add\n      swap2\n      jump(tag_35)\n    tag_36:\n      dup3\n      add\n      swap2\n      swap1\n      0x00\n      mstore\n      keccak256(0x00, 0x20)\n      swap1\n    tag_37:\n      dup2\n      sload\n      dup2\n      mstore\n      swap1\n      0x01\n      add\n      swap1\n      0x20\n      add\n      dup1\n      dup4\n      gt\n      tag_37\n      jumpi\n      dup3\n      swap1\n      sub\n      0x1f\n      and\n      dup3\n      add\n      swap2\n    tag_35:\n      pop\n      pop\n      pop\n      pop\n      pop\n      swap1\n      dup1\n      0x01\n      add\n      dup1\n      sload\n      tag_38\n      swap1\n      tag_33\n      jump\t// in\n    tag_38:\n      dup1\n      0x1f\n      add\n      0x20\n      dup1\n      swap2\n      div\n      mul\n      0x20\n      add\n      mload(0x40)\n      swap1\n      dup2\n      add\n      0x40\n      mstore\n      dup1\n      swap3\n      swap2\n      swap1\n      dup2\n      dup2\n      mstore\n      0x20\n      add\n      dup3\n      dup1\n      sload\n      tag_39\n      swap1\n      tag_33\n      jump\t// in\n    tag_39:\n      dup1\n      iszero\n      tag_40\n      jumpi\n      dup1\n      0x1f\n      lt\n      tag_41\n      jumpi\n      0x0100\n      dup1\n      dup4\n      sload\n      div\n      mul\n      dup4\n      mstore\n      swap2\n      0x20\n      add\n      swap2\n      jump(tag_40)\n    tag_41:\n      dup3\n      add\n      swap2\n      swap1\n      0x00\n      mstore\n      keccak256(0x00, 0x20)\n      swap1\n    tag_42:\n      dup2\n      sload\n      dup2\n      mstore\n      swap1\n      0x01\n      add\n      swap1\n      0x20\n      add\n      dup1\n      dup4\n      gt\n      tag_42\n      jumpi\n      dup3\n      swap1\n      sub\n      0x1f\n      and\n      dup3\n      add\n      swap2\n    tag_40:\n      pop\n      pop\n      pop\n      pop\n      pop\n      swap1\n      dup1\n      0x02\n      add\n      0x00\n      swap1\n      sload\n      swap1\n      0x0100\n      exp\n      swap1\n      div\n      0xff\n      and\n      swap1\n      pop\n      dup4\n      jump\t// out\n        /* \"contracts/DataKaryawan.sol\":792:908  function convertBytes(string memory _str) private pure returns (bytes32) {... */\n    tag_28:\n        /* \"contracts/DataKaryawan.sol\":856:863  bytes32 */\n      0x00\n        /* \"contracts/DataKaryawan.sol\":882:901  sha256(bytes(_str)) */\n      0x02\n        /* \"contracts/DataKaryawan.sol\":895:899  _str */\n      dup3\n        /* \"contracts/DataKaryawan.sol\":882:901  sha256(bytes(_str)) */\n      mload(0x40)\n      tag_44\n      swap2\n      swap1\n      tag_45\n      jump\t// in\n    tag_44:\n      0x20\n      mload(0x40)\n      dup1\n      dup4\n      sub\n      dup2\n      dup6\n      gas\n      staticcall\n      iszero\n      dup1\n      iszero\n      tag_47\n      jumpi\n      returndatasize\n      0x00\n      dup1\n      returndatacopy\n      revert(0x00, returndatasize)\n    tag_47:\n      pop\n      pop\n      pop\n      mload(0x40)\n      returndatasize\n      not(0x1f)\n      0x1f\n      dup3\n      add\n      and\n      dup3\n      add\n      dup1\n      0x40\n      mstore\n      pop\n      dup2\n      add\n      swap1\n      tag_48\n      swap2\n      swap1\n      tag_49\n      jump\t// in\n    tag_48:\n        /* \"contracts/DataKaryawan.sol\":875:901  return sha256(bytes(_str)) */\n      swap1\n      pop\n        /* \"contracts/DataKaryawan.sol\":792:908  function convertBytes(string memory _str) private pure returns (bytes32) {... */\n      swap2\n      swap1\n      pop\n      jump\t// out\n        /* \"contracts/DataKaryawan.sol\":455:669  function storeBytes(bytes32 _bytes, string memory _name) private {... */\n    tag_29:\n        /* \"contracts/DataKaryawan.sol\":557:562  _name */\n      dup1\n        /* \"contracts/DataKaryawan.sol\":530:541  dataMapping */\n      0x01\n        /* \"contracts/DataKaryawan.sol\":530:549  dataMapping[_bytes] */\n      0x00\n        /* \"contracts/DataKaryawan.sol\":542:548  _bytes */\n      dup5\n        /* \"contracts/DataKaryawan.sol\":530:549  dataMapping[_bytes] */\n      dup2\n      mstore\n      0x20\n      add\n      swap1\n      dup2\n      mstore\n      0x20\n      add\n      0x00\n      keccak256\n        /* \"contracts/DataKaryawan.sol\":530:554  dataMapping[_bytes].name */\n      0x00\n      add\n        /* \"contracts/DataKaryawan.sol\":530:562  dataMapping[_bytes].name = _name */\n      swap1\n      dup2\n      tag_51\n      swap2\n      swap1\n      tag_52\n      jump\t// in\n    tag_51:\n      pop\n        /* \"contracts/DataKaryawan.sol\":572:618  dataMapping[_bytes].status = \"Sudah terdaftar\" */\n      mload(0x40)\n      dup1\n      0x40\n      add\n      0x40\n      mstore\n      dup1\n      0x0f\n      dup2\n      mstore\n      0x20\n      add\n      0x5375646168207465726461667461720000000000000000000000000000000000\n      dup2\n      mstore\n      pop\n        /* \"contracts/DataKaryawan.sol\":572:583  dataMapping */\n      0x01\n        /* \"contracts/DataKaryawan.sol\":572:591  dataMapping[_bytes] */\n      0x00\n        /* \"contracts/DataKaryawan.sol\":584:590  _bytes */\n      dup5\n        /* \"contracts/DataKaryawan.sol\":572:591  dataMapping[_bytes] */\n      dup2\n      mstore\n      0x20\n      add\n      swap1\n      dup2\n      mstore\n      0x20\n      add\n      0x00\n      keccak256\n        /* \"contracts/DataKaryawan.sol\":572:598  dataMapping[_bytes].status */\n      0x01\n      add\n        /* \"contracts/DataKaryawan.sol\":572:618  dataMapping[_bytes].status = \"Sudah terdaftar\" */\n      swap1\n      dup2\n      tag_53\n      swap2\n      swap1\n      tag_52\n      jump\t// in\n    tag_53:\n      pop\n        /* \"contracts/DataKaryawan.sol\":658:662  true */\n      0x01\n        /* \"contracts/DataKaryawan.sol\":628:639  dataMapping */\n      dup1\n        /* \"contracts/DataKaryawan.sol\":628:647  dataMapping[_bytes] */\n      0x00\n        /* \"contracts/DataKaryawan.sol\":640:646  _bytes */\n      dup5\n        /* \"contracts/DataKaryawan.sol\":628:647  dataMapping[_bytes] */\n      dup2\n      mstore\n      0x20\n      add\n      swap1\n      dup2\n      mstore\n      0x20\n      add\n      0x00\n      keccak256\n        /* \"contracts/DataKaryawan.sol\":628:655  dataMapping[_bytes].isValue */\n      0x02\n      add\n      0x00\n        /* \"contracts/DataKaryawan.sol\":628:662  dataMapping[_bytes].isValue = true */\n      0x0100\n      exp\n      dup2\n      sload\n      dup2\n      0xff\n      mul\n      not\n      and\n      swap1\n      dup4\n      iszero\n      iszero\n      mul\n      or\n      swap1\n      sstore\n      pop\n        /* \"contracts/DataKaryawan.sol\":455:669  function storeBytes(bytes32 _bytes, string memory _name) private {... */\n      pop\n      pop\n      jump\t// out\n        /* \"#utility.yul\":7:82   */\n    tag_54:\n        /* \"#utility.yul\":40:46   */\n      0x00\n        /* \"#utility.yul\":73:75   */\n      0x40\n        /* \"#utility.yul\":67:76   */\n      mload\n        /* \"#utility.yul\":57:76   */\n      swap1\n      pop\n        /* \"#utility.yul\":7:82   */\n      swap1\n      jump\t// out\n        /* \"#utility.yul\":88:205   */\n    tag_55:\n        /* \"#utility.yul\":197:198   */\n      0x00\n        /* \"#utility.yul\":194:195   */\n      dup1\n        /* \"#utility.yul\":187:199   */\n      revert\n        /* \"#utility.yul\":211:328   */\n    tag_56:\n        /* \"#utility.yul\":320:321   */\n      0x00\n        /* \"#utility.yul\":317:318   */\n      dup1\n        /* \"#utility.yul\":310:322   */\n      revert\n        /* \"#utility.yul\":334:451   */\n    tag_57:\n        /* \"#utility.yul\":443:444   */\n      0x00\n        /* \"#utility.yul\":440:441   */\n      dup1\n        /* \"#utility.yul\":433:445   */\n      revert\n        /* \"#utility.yul\":457:574   */\n    tag_58:\n        /* \"#utility.yul\":566:567   */\n      0x00\n        /* \"#utility.yul\":563:564   */\n      dup1\n        /* \"#utility.yul\":556:568   */\n      revert\n        /* \"#utility.yul\":580:682   */\n    tag_59:\n        /* \"#utility.yul\":621:627   */\n      0x00\n        /* \"#utility.yul\":672:674   */\n      0x1f\n        /* \"#utility.yul\":668:675   */\n      not\n        /* \"#utility.yul\":663:665   */\n      0x1f\n        /* \"#utility.yul\":656:661   */\n      dup4\n        /* \"#utility.yul\":652:666   */\n      add\n        /* \"#utility.yul\":648:676   */\n      and\n        /* \"#utility.yul\":638:676   */\n      swap1\n      pop\n        /* \"#utility.yul\":580:682   */\n      swap2\n      swap1\n      pop\n      jump\t// out\n        /* \"#utility.yul\":688:868   */\n    tag_60:\n        /* \"#utility.yul\":736:813   */\n      0x4e487b7100000000000000000000000000000000000000000000000000000000\n        /* \"#utility.yul\":733:734   */\n      0x00\n        /* \"#utility.yul\":726:814   */\n      mstore\n        /* \"#utility.yul\":833:837   */\n      0x41\n        /* \"#utility.yul\":830:831   */\n      0x04\n        /* \"#utility.yul\":823:838   */\n      mstore\n        /* \"#utility.yul\":857:861   */\n      0x24\n        /* \"#utility.yul\":854:855   */\n      0x00\n        /* \"#utility.yul\":847:862   */\n      revert\n        /* \"#utility.yul\":874:1155   */\n    tag_61:\n        /* \"#utility.yul\":957:984   */\n      tag_108\n        /* \"#utility.yul\":979:983   */\n      dup3\n        /* \"#utility.yul\":957:984   */\n      tag_59\n      jump\t// in\n    tag_108:\n        /* \"#utility.yul\":949:955   */\n      dup2\n        /* \"#utility.yul\":945:985   */\n      add\n        /* \"#utility.yul\":1087:1093   */\n      dup2\n        /* \"#utility.yul\":1075:1085   */\n      dup2\n        /* \"#utility.yul\":1072:1094   */\n      lt\n        /* \"#utility.yul\":1051:1069   */\n      0xffffffffffffffff\n        /* \"#utility.yul\":1039:1049   */\n      dup3\n        /* \"#utility.yul\":1036:1070   */\n      gt\n        /* \"#utility.yul\":1033:1095   */\n      or\n        /* \"#utility.yul\":1030:1118   */\n      iszero\n      tag_109\n      jumpi\n        /* \"#utility.yul\":1098:1116   */\n      tag_110\n      tag_60\n      jump\t// in\n    tag_110:\n        /* \"#utility.yul\":1030:1118   */\n    tag_109:\n        /* \"#utility.yul\":1138:1148   */\n      dup1\n        /* \"#utility.yul\":1134:1136   */\n      0x40\n        /* \"#utility.yul\":1127:1149   */\n      mstore\n        /* \"#utility.yul\":917:1155   */\n      pop\n        /* \"#utility.yul\":874:1155   */\n      pop\n      pop\n      jump\t// out\n        /* \"#utility.yul\":1161:1290   */\n    tag_62:\n        /* \"#utility.yul\":1195:1201   */\n      0x00\n        /* \"#utility.yul\":1222:1242   */\n      tag_112\n      tag_54\n      jump\t// in\n    tag_112:\n        /* \"#utility.yul\":1212:1242   */\n      swap1\n      pop\n        /* \"#utility.yul\":1251:1284   */\n      tag_113\n        /* \"#utility.yul\":1279:1283   */\n      dup3\n        /* \"#utility.yul\":1271:1277   */\n      dup3\n        /* \"#utility.yul\":1251:1284   */\n      tag_61\n      jump\t// in\n    tag_113:\n        /* \"#utility.yul\":1161:1290   */\n      swap2\n      swap1\n      pop\n      jump\t// out\n        /* \"#utility.yul\":1296:1604   */\n    tag_63:\n        /* \"#utility.yul\":1358:1362   */\n      0x00\n        /* \"#utility.yul\":1448:1466   */\n      0xffffffffffffffff\n        /* \"#utility.yul\":1440:1446   */\n      dup3\n        /* \"#utility.yul\":1437:1467   */\n      gt\n        /* \"#utility.yul\":1434:1490   */\n      iszero\n      tag_115\n      jumpi\n        /* \"#utility.yul\":1470:1488   */\n      tag_116\n      tag_60\n      jump\t// in\n    tag_116:\n        /* \"#utility.yul\":1434:1490   */\n    tag_115:\n        /* \"#utility.yul\":1508:1537   */\n      tag_117\n        /* \"#utility.yul\":1530:1536   */\n      dup3\n        /* \"#utility.yul\":1508:1537   */\n      tag_59\n      jump\t// in\n    tag_117:\n        /* \"#utility.yul\":1500:1537   */\n      swap1\n      pop\n        /* \"#utility.yul\":1592:1596   */\n      0x20\n        /* \"#utility.yul\":1586:1590   */\n      dup2\n        /* \"#utility.yul\":1582:1597   */\n      add\n        /* \"#utility.yul\":1574:1597   */\n      swap1\n      pop\n        /* \"#utility.yul\":1296:1604   */\n      swap2\n      swap1\n      pop\n      jump\t// out\n        /* \"#utility.yul\":1610:1756   */\n    tag_64:\n        /* \"#utility.yul\":1707:1713   */\n      dup3\n        /* \"#utility.yul\":1702:1705   */\n      dup2\n        /* \"#utility.yul\":1697:1700   */\n      dup4\n        /* \"#utility.yul\":1684:1714   */\n      calldatacopy\n        /* \"#utility.yul\":1748:1749   */\n      0x00\n        /* \"#utility.yul\":1739:1745   */\n      dup4\n        /* \"#utility.yul\":1734:1737   */\n      dup4\n        /* \"#utility.yul\":1730:1746   */\n      add\n        /* \"#utility.yul\":1723:1750   */\n      mstore\n        /* \"#utility.yul\":1610:1756   */\n      pop\n      pop\n      pop\n      jump\t// out\n        /* \"#utility.yul\":1762:2187   */\n    tag_65:\n        /* \"#utility.yul\":1840:1845   */\n      0x00\n        /* \"#utility.yul\":1865:1931   */\n      tag_120\n        /* \"#utility.yul\":1881:1930   */\n      tag_121\n        /* \"#utility.yul\":1923:1929   */\n      dup5\n        /* \"#utility.yul\":1881:1930   */\n      tag_63\n      jump\t// in\n    tag_121:\n        /* \"#utility.yul\":1865:1931   */\n      tag_62\n      jump\t// in\n    tag_120:\n        /* \"#utility.yul\":1856:1931   */\n      swap1\n      pop\n        /* \"#utility.yul\":1954:1960   */\n      dup3\n        /* \"#utility.yul\":1947:1952   */\n      dup2\n        /* \"#utility.yul\":1940:1961   */\n      mstore\n        /* \"#utility.yul\":1992:1996   */\n      0x20\n        /* \"#utility.yul\":1985:1990   */\n      dup2\n        /* \"#utility.yul\":1981:1997   */\n      add\n        /* \"#utility.yul\":2030:2033   */\n      dup5\n        /* \"#utility.yul\":2021:2027   */\n      dup5\n        /* \"#utility.yul\":2016:2019   */\n      dup5\n        /* \"#utility.yul\":2012:2028   */\n      add\n        /* \"#utility.yul\":2009:2034   */\n      gt\n        /* \"#utility.yul\":2006:2118   */\n      iszero\n      tag_122\n      jumpi\n        /* \"#utility.yul\":2037:2116   */\n      tag_123\n      tag_58\n      jump\t// in\n    tag_123:\n        /* \"#utility.yul\":2006:2118   */\n    tag_122:\n        /* \"#utility.yul\":2127:2181   */\n      tag_124\n        /* \"#utility.yul\":2174:2180   */\n      dup5\n        /* \"#utility.yul\":2169:2172   */\n      dup3\n        /* \"#utility.yul\":2164:2167   */\n      dup6\n        /* \"#utility.yul\":2127:2181   */\n      tag_64\n      jump\t// in\n    tag_124:\n        /* \"#utility.yul\":1846:2187   */\n      pop\n        /* \"#utility.yul\":1762:2187   */\n      swap4\n      swap3\n      pop\n      pop\n      pop\n      jump\t// out\n        /* \"#utility.yul\":2207:2547   */\n    tag_66:\n        /* \"#utility.yul\":2263:2268   */\n      0x00\n        /* \"#utility.yul\":2312:2315   */\n      dup3\n        /* \"#utility.yul\":2305:2309   */\n      0x1f\n        /* \"#utility.yul\":2297:2303   */\n      dup4\n        /* \"#utility.yul\":2293:2310   */\n      add\n        /* \"#utility.yul\":2289:2316   */\n      slt\n        /* \"#utility.yul\":2279:2401   */\n      tag_126\n      jumpi\n        /* \"#utility.yul\":2320:2399   */\n      tag_127\n      tag_57\n      jump\t// in\n    tag_127:\n        /* \"#utility.yul\":2279:2401   */\n    tag_126:\n        /* \"#utility.yul\":2437:2443   */\n      dup2\n        /* \"#utility.yul\":2424:2444   */\n      calldataload\n        /* \"#utility.yul\":2462:2541   */\n      tag_128\n        /* \"#utility.yul\":2537:2540   */\n      dup5\n        /* \"#utility.yul\":2529:2535   */\n      dup3\n        /* \"#utility.yul\":2522:2526   */\n      0x20\n        /* \"#utility.yul\":2514:2520   */\n      dup7\n        /* \"#utility.yul\":2510:2527   */\n      add\n        /* \"#utility.yul\":2462:2541   */\n      tag_65\n      jump\t// in\n    tag_128:\n        /* \"#utility.yul\":2453:2541   */\n      swap2\n      pop\n        /* \"#utility.yul\":2269:2547   */\n      pop\n        /* \"#utility.yul\":2207:2547   */\n      swap3\n      swap2\n      pop\n      pop\n      jump\t// out\n        /* \"#utility.yul\":2553:3062   */\n    tag_8:\n        /* \"#utility.yul\":2622:2628   */\n      0x00\n        /* \"#utility.yul\":2671:2673   */\n      0x20\n        /* \"#utility.yul\":2659:2668   */\n      dup3\n        /* \"#utility.yul\":2650:2657   */\n      dup5\n        /* \"#utility.yul\":2646:2669   */\n      sub\n        /* \"#utility.yul\":2642:2674   */\n      slt\n        /* \"#utility.yul\":2639:2758   */\n      iszero\n      tag_130\n      jumpi\n        /* \"#utility.yul\":2677:2756   */\n      tag_131\n      tag_55\n      jump\t// in\n    tag_131:\n        /* \"#utility.yul\":2639:2758   */\n    tag_130:\n        /* \"#utility.yul\":2825:2826   */\n      0x00\n        /* \"#utility.yul\":2814:2823   */\n      dup3\n        /* \"#utility.yul\":2810:2827   */\n      add\n        /* \"#utility.yul\":2797:2828   */\n      calldataload\n        /* \"#utility.yul\":2855:2873   */\n      0xffffffffffffffff\n        /* \"#utility.yul\":2847:2853   */\n      dup2\n        /* \"#utility.yul\":2844:2874   */\n      gt\n        /* \"#utility.yul\":2841:2958   */\n      iszero\n      tag_132\n      jumpi\n        /* \"#utility.yul\":2877:2956   */\n      tag_133\n      tag_56\n      jump\t// in\n    tag_133:\n        /* \"#utility.yul\":2841:2958   */\n    tag_132:\n        /* \"#utility.yul\":2982:3045   */\n      tag_134\n        /* \"#utility.yul\":3037:3044   */\n      dup5\n        /* \"#utility.yul\":3028:3034   */\n      dup3\n        /* \"#utility.yul\":3017:3026   */\n      dup6\n        /* \"#utility.yul\":3013:3035   */\n      add\n        /* \"#utility.yul\":2982:3045   */\n      tag_66\n      jump\t// in\n    tag_134:\n        /* \"#utility.yul\":2972:3045   */\n      swap2\n      pop\n        /* \"#utility.yul\":2768:3055   */\n      pop\n        /* \"#utility.yul\":2553:3062   */\n      swap3\n      swap2\n      pop\n      pop\n      jump\t// out\n        /* \"#utility.yul\":3068:3158   */\n    tag_67:\n        /* \"#utility.yul\":3102:3109   */\n      0x00\n        /* \"#utility.yul\":3145:3150   */\n      dup2\n        /* \"#utility.yul\":3138:3151   */\n      iszero\n        /* \"#utility.yul\":3131:3152   */\n      iszero\n        /* \"#utility.yul\":3120:3152   */\n      swap1\n      pop\n        /* \"#utility.yul\":3068:3158   */\n      swap2\n      swap1\n      pop\n      jump\t// out\n        /* \"#utility.yul\":3164:3273   */\n    tag_68:\n        /* \"#utility.yul\":3245:3266   */\n      tag_137\n        /* \"#utility.yul\":3260:3265   */\n      dup2\n        /* \"#utility.yul\":3245:3266   */\n      tag_67\n      jump\t// in\n    tag_137:\n        /* \"#utility.yul\":3240:3243   */\n      dup3\n        /* \"#utility.yul\":3233:3267   */\n      mstore\n        /* \"#utility.yul\":3164:3273   */\n      pop\n      pop\n      jump\t// out\n        /* \"#utility.yul\":3279:3489   */\n    tag_14:\n        /* \"#utility.yul\":3366:3370   */\n      0x00\n        /* \"#utility.yul\":3404:3406   */\n      0x20\n        /* \"#utility.yul\":3393:3402   */\n      dup3\n        /* \"#utility.yul\":3389:3407   */\n      add\n        /* \"#utility.yul\":3381:3407   */\n      swap1\n      pop\n        /* \"#utility.yul\":3417:3482   */\n      tag_139\n        /* \"#utility.yul\":3479:3480   */\n      0x00\n        /* \"#utility.yul\":3468:3477   */\n      dup4\n        /* \"#utility.yul\":3464:3481   */\n      add\n        /* \"#utility.yul\":3455:3461   */\n      dup5\n        /* \"#utility.yul\":3417:3482   */\n      tag_68\n      jump\t// in\n    tag_139:\n        /* \"#utility.yul\":3279:3489   */\n      swap3\n      swap2\n      pop\n      pop\n      jump\t// out\n        /* \"#utility.yul\":3495:3572   */\n    tag_69:\n        /* \"#utility.yul\":3532:3539   */\n      0x00\n        /* \"#utility.yul\":3561:3566   */\n      dup2\n        /* \"#utility.yul\":3550:3566   */\n      swap1\n      pop\n        /* \"#utility.yul\":3495:3572   */\n      swap2\n      swap1\n      pop\n      jump\t// out\n        /* \"#utility.yul\":3578:3700   */\n    tag_70:\n        /* \"#utility.yul\":3651:3675   */\n      tag_142\n        /* \"#utility.yul\":3669:3674   */\n      dup2\n        /* \"#utility.yul\":3651:3675   */\n      tag_69\n      jump\t// in\n    tag_142:\n        /* \"#utility.yul\":3644:3649   */\n      dup2\n        /* \"#utility.yul\":3641:3676   */\n      eq\n        /* \"#utility.yul\":3631:3694   */\n      tag_143\n      jumpi\n        /* \"#utility.yul\":3690:3691   */\n      0x00\n        /* \"#utility.yul\":3687:3688   */\n      dup1\n        /* \"#utility.yul\":3680:3692   */\n      revert\n        /* \"#utility.yul\":3631:3694   */\n    tag_143:\n        /* \"#utility.yul\":3578:3700   */\n      pop\n      jump\t// out\n        /* \"#utility.yul\":3706:3845   */\n    tag_71:\n        /* \"#utility.yul\":3752:3757   */\n      0x00\n        /* \"#utility.yul\":3790:3796   */\n      dup2\n        /* \"#utility.yul\":3777:3797   */\n      calldataload\n        /* \"#utility.yul\":3768:3797   */\n      swap1\n      pop\n        /* \"#utility.yul\":3806:3839   */\n      tag_145\n        /* \"#utility.yul\":3833:3838   */\n      dup2\n        /* \"#utility.yul\":3806:3839   */\n      tag_70\n      jump\t// in\n    tag_145:\n        /* \"#utility.yul\":3706:3845   */\n      swap3\n      swap2\n      pop\n      pop\n      jump\t// out\n        /* \"#utility.yul\":3851:4180   */\n    tag_17:\n        /* \"#utility.yul\":3910:3916   */\n      0x00\n        /* \"#utility.yul\":3959:3961   */\n      0x20\n        /* \"#utility.yul\":3947:3956   */\n      dup3\n        /* \"#utility.yul\":3938:3945   */\n      dup5\n        /* \"#utility.yul\":3934:3957   */\n      sub\n        /* \"#utility.yul\":3930:3962   */\n      slt\n        /* \"#utility.yul\":3927:4046   */\n      iszero\n      tag_147\n      jumpi\n        /* \"#utility.yul\":3965:4044   */\n      tag_148\n      tag_55\n      jump\t// in\n    tag_148:\n        /* \"#utility.yul\":3927:4046   */\n    tag_147:\n        /* \"#utility.yul\":4085:4086   */\n      0x00\n        /* \"#utility.yul\":4110:4163   */\n      tag_149\n        /* \"#utility.yul\":4155:4162   */\n      dup5\n        /* \"#utility.yul\":4146:4152   */\n      dup3\n        /* \"#utility.yul\":4135:4144   */\n      dup6\n        /* \"#utility.yul\":4131:4153   */\n      add\n        /* \"#utility.yul\":4110:4163   */\n      tag_71\n      jump\t// in\n    tag_149:\n        /* \"#utility.yul\":4100:4163   */\n      swap2\n      pop\n        /* \"#utility.yul\":4056:4173   */\n      pop\n        /* \"#utility.yul\":3851:4180   */\n      swap3\n      swap2\n      pop\n      pop\n      jump\t// out\n        /* \"#utility.yul\":4186:4285   */\n    tag_72:\n        /* \"#utility.yul\":4238:4244   */\n      0x00\n        /* \"#utility.yul\":4272:4277   */\n      dup2\n        /* \"#utility.yul\":4266:4278   */\n      mload\n        /* \"#utility.yul\":4256:4278   */\n      swap1\n      pop\n        /* \"#utility.yul\":4186:4285   */\n      swap2\n      swap1\n      pop\n      jump\t// out\n        /* \"#utility.yul\":4291:4460   */\n    tag_73:\n        /* \"#utility.yul\":4375:4386   */\n      0x00\n        /* \"#utility.yul\":4409:4415   */\n      dup3\n        /* \"#utility.yul\":4404:4407   */\n      dup3\n        /* \"#utility.yul\":4397:4416   */\n      mstore\n        /* \"#utility.yul\":4449:4453   */\n      0x20\n        /* \"#utility.yul\":4444:4447   */\n      dup3\n        /* \"#utility.yul\":4440:4454   */\n      add\n        /* \"#utility.yul\":4425:4454   */\n      swap1\n      pop\n        /* \"#utility.yul\":4291:4460   */\n      swap3\n      swap2\n      pop\n      pop\n      jump\t// out\n        /* \"#utility.yul\":4466:4712   */\n    tag_74:\n        /* \"#utility.yul\":4547:4548   */\n      0x00\n        /* \"#utility.yul\":4557:4670   */\n    tag_153:\n        /* \"#utility.yul\":4571:4577   */\n      dup4\n        /* \"#utility.yul\":4568:4569   */\n      dup2\n        /* \"#utility.yul\":4565:4578   */\n      lt\n        /* \"#utility.yul\":4557:4670   */\n      iszero\n      tag_155\n      jumpi\n        /* \"#utility.yul\":4656:4657   */\n      dup1\n        /* \"#utility.yul\":4651:4654   */\n      dup3\n        /* \"#utility.yul\":4647:4658   */\n      add\n        /* \"#utility.yul\":4641:4659   */\n      mload\n        /* \"#utility.yul\":4637:4638   */\n      dup2\n        /* \"#utility.yul\":4632:4635   */\n      dup5\n        /* \"#utility.yul\":4628:4639   */\n      add\n        /* \"#utility.yul\":4621:4660   */\n      mstore\n        /* \"#utility.yul\":4593:4595   */\n      0x20\n        /* \"#utility.yul\":4590:4591   */\n      dup2\n        /* \"#utility.yul\":4586:4596   */\n      add\n        /* \"#utility.yul\":4581:4596   */\n      swap1\n      pop\n        /* \"#utility.yul\":4557:4670   */\n      jump(tag_153)\n    tag_155:\n        /* \"#utility.yul\":4704:4705   */\n      0x00\n        /* \"#utility.yul\":4695:4701   */\n      dup5\n        /* \"#utility.yul\":4690:4693   */\n      dup5\n        /* \"#utility.yul\":4686:4702   */\n      add\n        /* \"#utility.yul\":4679:4706   */\n      mstore\n        /* \"#utility.yul\":4528:4712   */\n      pop\n        /* \"#utility.yul\":4466:4712   */\n      pop\n      pop\n      pop\n      jump\t// out\n        /* \"#utility.yul\":4718:5095   */\n    tag_75:\n        /* \"#utility.yul\":4806:4809   */\n      0x00\n        /* \"#utility.yul\":4834:4873   */\n      tag_157\n        /* \"#utility.yul\":4867:4872   */\n      dup3\n        /* \"#utility.yul\":4834:4873   */\n      tag_72\n      jump\t// in\n    tag_157:\n        /* \"#utility.yul\":4889:4960   */\n      tag_158\n        /* \"#utility.yul\":4953:4959   */\n      dup2\n        /* \"#utility.yul\":4948:4951   */\n      dup6\n        /* \"#utility.yul\":4889:4960   */\n      tag_73\n      jump\t// in\n    tag_158:\n        /* \"#utility.yul\":4882:4960   */\n      swap4\n      pop\n        /* \"#utility.yul\":4969:5034   */\n      tag_159\n        /* \"#utility.yul\":5027:5033   */\n      dup2\n        /* \"#utility.yul\":5022:5025   */\n      dup6\n        /* \"#utility.yul\":5015:5019   */\n      0x20\n        /* \"#utility.yul\":5008:5013   */\n      dup7\n        /* \"#utility.yul\":5004:5020   */\n      add\n        /* \"#utility.yul\":4969:5034   */\n      tag_74\n      jump\t// in\n    tag_159:\n        /* \"#utility.yul\":5059:5088   */\n      tag_160\n        /* \"#utility.yul\":5081:5087   */\n      dup2\n        /* \"#utility.yul\":5059:5088   */\n      tag_59\n      jump\t// in\n    tag_160:\n        /* \"#utility.yul\":5054:5057   */\n      dup5\n        /* \"#utility.yul\":5050:5089   */\n      add\n        /* \"#utility.yul\":5043:5089   */\n      swap2\n      pop\n        /* \"#utility.yul\":4810:5095   */\n      pop\n        /* \"#utility.yul\":4718:5095   */\n      swap3\n      swap2\n      pop\n      pop\n      jump\t// out\n        /* \"#utility.yul\":5101:5713   */\n    tag_20:\n        /* \"#utility.yul\":5284:5288   */\n      0x00\n        /* \"#utility.yul\":5322:5324   */\n      0x60\n        /* \"#utility.yul\":5311:5320   */\n      dup3\n        /* \"#utility.yul\":5307:5325   */\n      add\n        /* \"#utility.yul\":5299:5325   */\n      swap1\n      pop\n        /* \"#utility.yul\":5371:5380   */\n      dup2\n        /* \"#utility.yul\":5365:5369   */\n      dup2\n        /* \"#utility.yul\":5361:5381   */\n      sub\n        /* \"#utility.yul\":5357:5358   */\n      0x00\n        /* \"#utility.yul\":5346:5355   */\n      dup4\n        /* \"#utility.yul\":5342:5359   */\n      add\n        /* \"#utility.yul\":5335:5382   */\n      mstore\n        /* \"#utility.yul\":5399:5477   */\n      tag_162\n        /* \"#utility.yul\":5472:5476   */\n      dup2\n        /* \"#utility.yul\":5463:5469   */\n      dup7\n        /* \"#utility.yul\":5399:5477   */\n      tag_75\n      jump\t// in\n    tag_162:\n        /* \"#utility.yul\":5391:5477   */\n      swap1\n      pop\n        /* \"#utility.yul\":5524:5533   */\n      dup2\n        /* \"#utility.yul\":5518:5522   */\n      dup2\n        /* \"#utility.yul\":5514:5534   */\n      sub\n        /* \"#utility.yul\":5509:5511   */\n      0x20\n        /* \"#utility.yul\":5498:5507   */\n      dup4\n        /* \"#utility.yul\":5494:5512   */\n      add\n        /* \"#utility.yul\":5487:5535   */\n      mstore\n        /* \"#utility.yul\":5552:5630   */\n      tag_163\n        /* \"#utility.yul\":5625:5629   */\n      dup2\n        /* \"#utility.yul\":5616:5622   */\n      dup6\n        /* \"#utility.yul\":5552:5630   */\n      tag_75\n      jump\t// in\n    tag_163:\n        /* \"#utility.yul\":5544:5630   */\n      swap1\n      pop\n        /* \"#utility.yul\":5640:5706   */\n      tag_164\n        /* \"#utility.yul\":5702:5704   */\n      0x40\n        /* \"#utility.yul\":5691:5700   */\n      dup4\n        /* \"#utility.yul\":5687:5705   */\n      add\n        /* \"#utility.yul\":5678:5684   */\n      dup5\n        /* \"#utility.yul\":5640:5706   */\n      tag_68\n      jump\t// in\n    tag_164:\n        /* \"#utility.yul\":5101:5713   */\n      swap5\n      swap4\n      pop\n      pop\n      pop\n      pop\n      jump\t// out\n        /* \"#utility.yul\":5719:5948   */\n    tag_76:\n        /* \"#utility.yul\":5859:5893   */\n      0x48616e79612061646472657373206f776e65722079616e672062697361206d65\n        /* \"#utility.yul\":5855:5856   */\n      0x00\n        /* \"#utility.yul\":5847:5853   */\n      dup3\n        /* \"#utility.yul\":5843:5857   */\n      add\n        /* \"#utility.yul\":5836:5894   */\n      mstore\n        /* \"#utility.yul\":5928:5940   */\n      0x6e6a616c616e6b616e2100000000000000000000000000000000000000000000\n        /* \"#utility.yul\":5923:5925   */\n      0x20\n        /* \"#utility.yul\":5915:5921   */\n      dup3\n        /* \"#utility.yul\":5911:5926   */\n      add\n        /* \"#utility.yul\":5904:5941   */\n      mstore\n        /* \"#utility.yul\":5719:5948   */\n      pop\n      jump\t// out\n        /* \"#utility.yul\":5954:6320   */\n    tag_77:\n        /* \"#utility.yul\":6096:6099   */\n      0x00\n        /* \"#utility.yul\":6117:6184   */\n      tag_167\n        /* \"#utility.yul\":6181:6183   */\n      0x2a\n        /* \"#utility.yul\":6176:6179   */\n      dup4\n        /* \"#utility.yul\":6117:6184   */\n      tag_73\n      jump\t// in\n    tag_167:\n        /* \"#utility.yul\":6110:6184   */\n      swap2\n      pop\n        /* \"#utility.yul\":6193:6286   */\n      tag_168\n        /* \"#utility.yul\":6282:6285   */\n      dup3\n        /* \"#utility.yul\":6193:6286   */\n      tag_76\n      jump\t// in\n    tag_168:\n        /* \"#utility.yul\":6311:6313   */\n      0x40\n        /* \"#utility.yul\":6306:6309   */\n      dup3\n        /* \"#utility.yul\":6302:6314   */\n      add\n        /* \"#utility.yul\":6295:6314   */\n      swap1\n      pop\n        /* \"#utility.yul\":5954:6320   */\n      swap2\n      swap1\n      pop\n      jump\t// out\n        /* \"#utility.yul\":6326:6745   */\n    tag_24:\n        /* \"#utility.yul\":6492:6496   */\n      0x00\n        /* \"#utility.yul\":6530:6532   */\n      0x20\n        /* \"#utility.yul\":6519:6528   */\n      dup3\n        /* \"#utility.yul\":6515:6533   */\n      add\n        /* \"#utility.yul\":6507:6533   */\n      swap1\n      pop\n        /* \"#utility.yul\":6579:6588   */\n      dup2\n        /* \"#utility.yul\":6573:6577   */\n      dup2\n        /* \"#utility.yul\":6569:6589   */\n      sub\n        /* \"#utility.yul\":6565:6566   */\n      0x00\n        /* \"#utility.yul\":6554:6563   */\n      dup4\n        /* \"#utility.yul\":6550:6567   */\n      add\n        /* \"#utility.yul\":6543:6590   */\n      mstore\n        /* \"#utility.yul\":6607:6738   */\n      tag_170\n        /* \"#utility.yul\":6733:6737   */\n      dup2\n        /* \"#utility.yul\":6607:6738   */\n      tag_77\n      jump\t// in\n    tag_170:\n        /* \"#utility.yul\":6599:6738   */\n      swap1\n      pop\n        /* \"#utility.yul\":6326:6745   */\n      swap2\n      swap1\n      pop\n      jump\t// out\n        /* \"#utility.yul\":6751:6931   */\n    tag_78:\n        /* \"#utility.yul\":6799:6876   */\n      0x4e487b7100000000000000000000000000000000000000000000000000000000\n        /* \"#utility.yul\":6796:6797   */\n      0x00\n        /* \"#utility.yul\":6789:6877   */\n      mstore\n        /* \"#utility.yul\":6896:6900   */\n      0x22\n        /* \"#utility.yul\":6893:6894   */\n      0x04\n        /* \"#utility.yul\":6886:6901   */\n      mstore\n        /* \"#utility.yul\":6920:6924   */\n      0x24\n        /* \"#utility.yul\":6917:6918   */\n      0x00\n        /* \"#utility.yul\":6910:6925   */\n      revert\n        /* \"#utility.yul\":6937:7257   */\n    tag_33:\n        /* \"#utility.yul\":6981:6987   */\n      0x00\n        /* \"#utility.yul\":7018:7019   */\n      0x02\n        /* \"#utility.yul\":7012:7016   */\n      dup3\n        /* \"#utility.yul\":7008:7020   */\n      div\n        /* \"#utility.yul\":6998:7020   */\n      swap1\n      pop\n        /* \"#utility.yul\":7065:7066   */\n      0x01\n        /* \"#utility.yul\":7059:7063   */\n      dup3\n        /* \"#utility.yul\":7055:7067   */\n      and\n        /* \"#utility.yul\":7086:7104   */\n      dup1\n        /* \"#utility.yul\":7076:7157   */\n      tag_173\n      jumpi\n        /* \"#utility.yul\":7142:7146   */\n      0x7f\n        /* \"#utility.yul\":7134:7140   */\n      dup3\n        /* \"#utility.yul\":7130:7147   */\n      and\n        /* \"#utility.yul\":7120:7147   */\n      swap2\n      pop\n        /* \"#utility.yul\":7076:7157   */\n    tag_173:\n        /* \"#utility.yul\":7204:7206   */\n      0x20\n        /* \"#utility.yul\":7196:7202   */\n      dup3\n        /* \"#utility.yul\":7193:7207   */\n      lt\n        /* \"#utility.yul\":7173:7191   */\n      dup2\n        /* \"#utility.yul\":7170:7208   */\n      sub\n        /* \"#utility.yul\":7167:7251   */\n      tag_174\n      jumpi\n        /* \"#utility.yul\":7223:7241   */\n      tag_175\n      tag_78\n      jump\t// in\n    tag_175:\n        /* \"#utility.yul\":7167:7251   */\n    tag_174:\n        /* \"#utility.yul\":6988:7257   */\n      pop\n        /* \"#utility.yul\":6937:7257   */\n      swap2\n      swap1\n      pop\n      jump\t// out\n        /* \"#utility.yul\":7263:7361   */\n    tag_79:\n        /* \"#utility.yul\":7314:7320   */\n      0x00\n        /* \"#utility.yul\":7348:7353   */\n      dup2\n        /* \"#utility.yul\":7342:7354   */\n      mload\n        /* \"#utility.yul\":7332:7354   */\n      swap1\n      pop\n        /* \"#utility.yul\":7263:7361   */\n      swap2\n      swap1\n      pop\n      jump\t// out\n        /* \"#utility.yul\":7367:7514   */\n    tag_80:\n        /* \"#utility.yul\":7468:7479   */\n      0x00\n        /* \"#utility.yul\":7505:7508   */\n      dup2\n        /* \"#utility.yul\":7490:7508   */\n      swap1\n      pop\n        /* \"#utility.yul\":7367:7514   */\n      swap3\n      swap2\n      pop\n      pop\n      jump\t// out\n        /* \"#utility.yul\":7520:7906   */\n    tag_81:\n        /* \"#utility.yul\":7624:7627   */\n      0x00\n        /* \"#utility.yul\":7652:7690   */\n      tag_179\n        /* \"#utility.yul\":7684:7689   */\n      dup3\n        /* \"#utility.yul\":7652:7690   */\n      tag_79\n      jump\t// in\n    tag_179:\n        /* \"#utility.yul\":7706:7794   */\n      tag_180\n        /* \"#utility.yul\":7787:7793   */\n      dup2\n        /* \"#utility.yul\":7782:7785   */\n      dup6\n        /* \"#utility.yul\":7706:7794   */\n      tag_80\n      jump\t// in\n    tag_180:\n        /* \"#utility.yul\":7699:7794   */\n      swap4\n      pop\n        /* \"#utility.yul\":7803:7868   */\n      tag_181\n        /* \"#utility.yul\":7861:7867   */\n      dup2\n        /* \"#utility.yul\":7856:7859   */\n      dup6\n        /* \"#utility.yul\":7849:7853   */\n      0x20\n        /* \"#utility.yul\":7842:7847   */\n      dup7\n        /* \"#utility.yul\":7838:7854   */\n      add\n        /* \"#utility.yul\":7803:7868   */\n      tag_74\n      jump\t// in\n    tag_181:\n        /* \"#utility.yul\":7893:7899   */\n      dup1\n        /* \"#utility.yul\":7888:7891   */\n      dup5\n        /* \"#utility.yul\":7884:7900   */\n      add\n        /* \"#utility.yul\":7877:7900   */\n      swap2\n      pop\n        /* \"#utility.yul\":7628:7906   */\n      pop\n        /* \"#utility.yul\":7520:7906   */\n      swap3\n      swap2\n      pop\n      pop\n      jump\t// out\n        /* \"#utility.yul\":7912:8183   */\n    tag_45:\n        /* \"#utility.yul\":8042:8045   */\n      0x00\n        /* \"#utility.yul\":8064:8157   */\n      tag_183\n        /* \"#utility.yul\":8153:8156   */\n      dup3\n        /* \"#utility.yul\":8144:8150   */\n      dup5\n        /* \"#utility.yul\":8064:8157   */\n      tag_81\n      jump\t// in\n    tag_183:\n        /* \"#utility.yul\":8057:8157   */\n      swap2\n      pop\n        /* \"#utility.yul\":8174:8177   */\n      dup2\n        /* \"#utility.yul\":8167:8177   */\n      swap1\n      pop\n        /* \"#utility.yul\":7912:8183   */\n      swap3\n      swap2\n      pop\n      pop\n      jump\t// out\n        /* \"#utility.yul\":8189:8332   */\n    tag_82:\n        /* \"#utility.yul\":8246:8251   */\n      0x00\n        /* \"#utility.yul\":8277:8283   */\n      dup2\n        /* \"#utility.yul\":8271:8284   */\n      mload\n        /* \"#utility.yul\":8262:8284   */\n      swap1\n      pop\n        /* \"#utility.yul\":8293:8326   */\n      tag_185\n        /* \"#utility.yul\":8320:8325   */\n      dup2\n        /* \"#utility.yul\":8293:8326   */\n      tag_70\n      jump\t// in\n    tag_185:\n        /* \"#utility.yul\":8189:8332   */\n      swap3\n      swap2\n      pop\n      pop\n      jump\t// out\n        /* \"#utility.yul\":8338:8689   */\n    tag_49:\n        /* \"#utility.yul\":8408:8414   */\n      0x00\n        /* \"#utility.yul\":8457:8459   */\n      0x20\n        /* \"#utility.yul\":8445:8454   */\n      dup3\n        /* \"#utility.yul\":8436:8443   */\n      dup5\n        /* \"#utility.yul\":8432:8455   */\n      sub\n        /* \"#utility.yul\":8428:8460   */\n      slt\n        /* \"#utility.yul\":8425:8544   */\n      iszero\n      tag_187\n      jumpi\n        /* \"#utility.yul\":8463:8542   */\n      tag_188\n      tag_55\n      jump\t// in\n    tag_188:\n        /* \"#utility.yul\":8425:8544   */\n    tag_187:\n        /* \"#utility.yul\":8583:8584   */\n      0x00\n        /* \"#utility.yul\":8608:8672   */\n      tag_189\n        /* \"#utility.yul\":8664:8671   */\n      dup5\n        /* \"#utility.yul\":8655:8661   */\n      dup3\n        /* \"#utility.yul\":8644:8653   */\n      dup6\n        /* \"#utility.yul\":8640:8662   */\n      add\n        /* \"#utility.yul\":8608:8672   */\n      tag_82\n      jump\t// in\n    tag_189:\n        /* \"#utility.yul\":8598:8672   */\n      swap2\n      pop\n        /* \"#utility.yul\":8554:8682   */\n      pop\n        /* \"#utility.yul\":8338:8689   */\n      swap3\n      swap2\n      pop\n      pop\n      jump\t// out\n        /* \"#utility.yul\":8695:8836   */\n    tag_83:\n        /* \"#utility.yul\":8744:8748   */\n      0x00\n        /* \"#utility.yul\":8767:8770   */\n      dup2\n        /* \"#utility.yul\":8759:8770   */\n      swap1\n      pop\n        /* \"#utility.yul\":8790:8793   */\n      dup2\n        /* \"#utility.yul\":8787:8788   */\n      0x00\n        /* \"#utility.yul\":8780:8794   */\n      mstore\n        /* \"#utility.yul\":8824:8828   */\n      0x20\n        /* \"#utility.yul\":8821:8822   */\n      0x00\n        /* \"#utility.yul\":8811:8829   */\n      keccak256\n        /* \"#utility.yul\":8803:8829   */\n      swap1\n      pop\n        /* \"#utility.yul\":8695:8836   */\n      swap2\n      swap1\n      pop\n      jump\t// out\n        /* \"#utility.yul\":8842:8935   */\n    tag_84:\n        /* \"#utility.yul\":8879:8885   */\n      0x00\n        /* \"#utility.yul\":8926:8928   */\n      0x20\n        /* \"#utility.yul\":8921:8923   */\n      0x1f\n        /* \"#utility.yul\":8914:8919   */\n      dup4\n        /* \"#utility.yul\":8910:8924   */\n      add\n        /* \"#utility.yul\":8906:8929   */\n      div\n        /* \"#utility.yul\":8896:8929   */\n      swap1\n      pop\n        /* \"#utility.yul\":8842:8935   */\n      swap2\n      swap1\n      pop\n      jump\t// out\n        /* \"#utility.yul\":8941:9048   */\n    tag_85:\n        /* \"#utility.yul\":8985:8993   */\n      0x00\n        /* \"#utility.yul\":9035:9040   */\n      dup3\n        /* \"#utility.yul\":9029:9033   */\n      dup3\n        /* \"#utility.yul\":9025:9041   */\n      shl\n        /* \"#utility.yul\":9004:9041   */\n      swap1\n      pop\n        /* \"#utility.yul\":8941:9048   */\n      swap3\n      swap2\n      pop\n      pop\n      jump\t// out\n        /* \"#utility.yul\":9054:9447   */\n    tag_86:\n        /* \"#utility.yul\":9123:9129   */\n      0x00\n        /* \"#utility.yul\":9173:9174   */\n      0x08\n        /* \"#utility.yul\":9161:9171   */\n      dup4\n        /* \"#utility.yul\":9157:9175   */\n      mul\n        /* \"#utility.yul\":9196:9293   */\n      tag_194\n        /* \"#utility.yul\":9226:9292   */\n      0xffffffffffffffffffffffffffffffffffffffffffffffffffffffffffffffff\n        /* \"#utility.yul\":9215:9224   */\n      dup3\n        /* \"#utility.yul\":9196:9293   */\n      tag_85\n      jump\t// in\n    tag_194:\n        /* \"#utility.yul\":9314:9353   */\n      tag_195\n        /* \"#utility.yul\":9344:9352   */\n      dup7\n        /* \"#utility.yul\":9333:9342   */\n      dup4\n        /* \"#utility.yul\":9314:9353   */\n      tag_85\n      jump\t// in\n    tag_195:\n        /* \"#utility.yul\":9302:9353   */\n      swap6\n      pop\n        /* \"#utility.yul\":9386:9390   */\n      dup1\n        /* \"#utility.yul\":9382:9391   */\n      not\n        /* \"#utility.yul\":9375:9380   */\n      dup5\n        /* \"#utility.yul\":9371:9392   */\n      and\n        /* \"#utility.yul\":9362:9392   */\n      swap4\n      pop\n        /* \"#utility.yul\":9435:9439   */\n      dup1\n        /* \"#utility.yul\":9425:9433   */\n      dup7\n        /* \"#utility.yul\":9421:9440   */\n      and\n        /* \"#utility.yul\":9414:9419   */\n      dup5\n        /* \"#utility.yul\":9411:9441   */\n      or\n        /* \"#utility.yul\":9401:9441   */\n      swap3\n      pop\n        /* \"#utility.yul\":9130:9447   */\n      pop\n      pop\n        /* \"#utility.yul\":9054:9447   */\n      swap4\n      swap3\n      pop\n      pop\n      pop\n      jump\t// out\n        /* \"#utility.yul\":9453:9530   */\n    tag_87:\n        /* \"#utility.yul\":9490:9497   */\n      0x00\n        /* \"#utility.yul\":9519:9524   */\n      dup2\n        /* \"#utility.yul\":9508:9524   */\n      swap1\n      pop\n        /* \"#utility.yul\":9453:9530   */\n      swap2\n      swap1\n      pop\n      jump\t// out\n        /* \"#utility.yul\":9536:9596   */\n    tag_88:\n        /* \"#utility.yul\":9564:9567   */\n      0x00\n        /* \"#utility.yul\":9585:9590   */\n      dup2\n        /* \"#utility.yul\":9578:9590   */\n      swap1\n      pop\n        /* \"#utility.yul\":9536:9596   */\n      swap2\n      swap1\n      pop\n      jump\t// out\n        /* \"#utility.yul\":9602:9744   */\n    tag_89:\n        /* \"#utility.yul\":9652:9661   */\n      0x00\n        /* \"#utility.yul\":9685:9738   */\n      tag_199\n        /* \"#utility.yul\":9703:9737   */\n      tag_200\n        /* \"#utility.yul\":9712:9736   */\n      tag_201\n        /* \"#utility.yul\":9730:9735   */\n      dup5\n        /* \"#utility.yul\":9712:9736   */\n      tag_87\n      jump\t// in\n    tag_201:\n        /* \"#utility.yul\":9703:9737   */\n      tag_88\n      jump\t// in\n    tag_200:\n        /* \"#utility.yul\":9685:9738   */\n      tag_87\n      jump\t// in\n    tag_199:\n        /* \"#utility.yul\":9672:9738   */\n      swap1\n      pop\n        /* \"#utility.yul\":9602:9744   */\n      swap2\n      swap1\n      pop\n      jump\t// out\n        /* \"#utility.yul\":9750:9825   */\n    tag_90:\n        /* \"#utility.yul\":9793:9796   */\n      0x00\n        /* \"#utility.yul\":9814:9819   */\n      dup2\n        /* \"#utility.yul\":9807:9819   */\n      swap1\n      pop\n        /* \"#utility.yul\":9750:9825   */\n      swap2\n      swap1\n      pop\n      jump\t// out\n        /* \"#utility.yul\":9831:10100   */\n    tag_91:\n        /* \"#utility.yul\":9941:9980   */\n      tag_204\n        /* \"#utility.yul\":9972:9979   */\n      dup4\n        /* \"#utility.yul\":9941:9980   */\n      tag_89\n      jump\t// in\n    tag_204:\n        /* \"#utility.yul\":10002:10093   */\n      tag_205\n        /* \"#utility.yul\":10051:10092   */\n      tag_206\n        /* \"#utility.yul\":10075:10091   */\n      dup3\n        /* \"#utility.yul\":10051:10092   */\n      tag_90\n      jump\t// in\n    tag_206:\n        /* \"#utility.yul\":10043:10049   */\n      dup5\n        /* \"#utility.yul\":10036:10040   */\n      dup5\n        /* \"#utility.yul\":10030:10041   */\n      sload\n        /* \"#utility.yul\":10002:10093   */\n      tag_86\n      jump\t// in\n    tag_205:\n        /* \"#utility.yul\":9996:10000   */\n      dup3\n        /* \"#utility.yul\":9989:10094   */\n      sstore\n        /* \"#utility.yul\":9907:10100   */\n      pop\n        /* \"#utility.yul\":9831:10100   */\n      pop\n      pop\n      pop\n      jump\t// out\n        /* \"#utility.yul\":10106:10179   */\n    tag_92:\n        /* \"#utility.yul\":10151:10154   */\n      0x00\n        /* \"#utility.yul\":10106:10179   */\n      swap1\n      jump\t// out\n        /* \"#utility.yul\":10185:10374   */\n    tag_93:\n        /* \"#utility.yul\":10262:10294   */\n      tag_209\n      tag_92\n      jump\t// in\n    tag_209:\n        /* \"#utility.yul\":10303:10368   */\n      tag_210\n        /* \"#utility.yul\":10361:10367   */\n      dup2\n        /* \"#utility.yul\":10353:10359   */\n      dup5\n        /* \"#utility.yul\":10347:10351   */\n      dup5\n        /* \"#utility.yul\":10303:10368   */\n      tag_91\n      jump\t// in\n    tag_210:\n        /* \"#utility.yul\":10238:10374   */\n      pop\n        /* \"#utility.yul\":10185:10374   */\n      pop\n      pop\n      jump\t// out\n        /* \"#utility.yul\":10380:10566   */\n    tag_94:\n        /* \"#utility.yul\":10440:10560   */\n    tag_212:\n        /* \"#utility.yul\":10457:10460   */\n      dup2\n        /* \"#utility.yul\":10450:10455   */\n      dup2\n        /* \"#utility.yul\":10447:10461   */\n      lt\n        /* \"#utility.yul\":10440:10560   */\n      iszero\n      tag_214\n      jumpi\n        /* \"#utility.yul\":10511:10550   */\n      tag_215\n        /* \"#utility.yul\":10548:10549   */\n      0x00\n        /* \"#utility.yul\":10541:10546   */\n      dup3\n        /* \"#utility.yul\":10511:10550   */\n      tag_93\n      jump\t// in\n    tag_215:\n        /* \"#utility.yul\":10484:10485   */\n      0x01\n        /* \"#utility.yul\":10477:10482   */\n      dup2\n        /* \"#utility.yul\":10473:10486   */\n      add\n        /* \"#utility.yul\":10464:10486   */\n      swap1\n      pop\n        /* \"#utility.yul\":10440:10560   */\n      jump(tag_212)\n    tag_214:\n        /* \"#utility.yul\":10380:10566   */\n      pop\n      pop\n      jump\t// out\n        /* \"#utility.yul\":10572:11115   */\n    tag_95:\n        /* \"#utility.yul\":10673:10675   */\n      0x1f\n        /* \"#utility.yul\":10668:10671   */\n      dup3\n        /* \"#utility.yul\":10665:10676   */\n      gt\n        /* \"#utility.yul\":10662:11108   */\n      iszero\n      tag_217\n      jumpi\n        /* \"#utility.yul\":10707:10745   */\n      tag_218\n        /* \"#utility.yul\":10739:10744   */\n      dup2\n        /* \"#utility.yul\":10707:10745   */\n      tag_83\n      jump\t// in\n    tag_218:\n        /* \"#utility.yul\":10791:10820   */\n      tag_219\n        /* \"#utility.yul\":10809:10819   */\n      dup5\n        /* \"#utility.yul\":10791:10820   */\n      tag_84\n      jump\t// in\n    tag_219:\n        /* \"#utility.yul\":10781:10789   */\n      dup2\n        /* \"#utility.yul\":10777:10821   */\n      add\n        /* \"#utility.yul\":10974:10976   */\n      0x20\n        /* \"#utility.yul\":10962:10972   */\n      dup6\n        /* \"#utility.yul\":10959:10977   */\n      lt\n        /* \"#utility.yul\":10956:11005   */\n      iszero\n      tag_220\n      jumpi\n        /* \"#utility.yul\":10995:11003   */\n      dup2\n        /* \"#utility.yul\":10980:11003   */\n      swap1\n      pop\n        /* \"#utility.yul\":10956:11005   */\n    tag_220:\n        /* \"#utility.yul\":11018:11098   */\n      tag_221\n        /* \"#utility.yul\":11074:11096   */\n      tag_222\n        /* \"#utility.yul\":11092:11095   */\n      dup6\n        /* \"#utility.yul\":11074:11096   */\n      tag_84\n      jump\t// in\n    tag_222:\n        /* \"#utility.yul\":11064:11072   */\n      dup4\n        /* \"#utility.yul\":11060:11097   */\n      add\n        /* \"#utility.yul\":11047:11058   */\n      dup3\n        /* \"#utility.yul\":11018:11098   */\n      tag_94\n      jump\t// in\n    tag_221:\n        /* \"#utility.yul\":10677:11108   */\n      pop\n      pop\n        /* \"#utility.yul\":10662:11108   */\n    tag_217:\n        /* \"#utility.yul\":10572:11115   */\n      pop\n      pop\n      pop\n      jump\t// out\n        /* \"#utility.yul\":11121:11238   */\n    tag_96:\n        /* \"#utility.yul\":11175:11183   */\n      0x00\n        /* \"#utility.yul\":11225:11230   */\n      dup3\n        /* \"#utility.yul\":11219:11223   */\n      dup3\n        /* \"#utility.yul\":11215:11231   */\n      shr\n        /* \"#utility.yul\":11194:11231   */\n      swap1\n      pop\n        /* \"#utility.yul\":11121:11238   */\n      swap3\n      swap2\n      pop\n      pop\n      jump\t// out\n        /* \"#utility.yul\":11244:11413   */\n    tag_97:\n        /* \"#utility.yul\":11288:11294   */\n      0x00\n        /* \"#utility.yul\":11321:11372   */\n      tag_225\n        /* \"#utility.yul\":11369:11370   */\n      0x00\n        /* \"#utility.yul\":11365:11371   */\n      not\n        /* \"#utility.yul\":11357:11362   */\n      dup5\n        /* \"#utility.yul\":11354:11355   */\n      0x08\n        /* \"#utility.yul\":11350:11363   */\n      mul\n        /* \"#utility.yul\":11321:11372   */\n      tag_96\n      jump\t// in\n    tag_225:\n        /* \"#utility.yul\":11317:11373   */\n      not\n        /* \"#utility.yul\":11402:11406   */\n      dup1\n        /* \"#utility.yul\":11396:11400   */\n      dup4\n        /* \"#utility.yul\":11392:11407   */\n      and\n        /* \"#utility.yul\":11382:11407   */\n      swap2\n      pop\n        /* \"#utility.yul\":11295:11413   */\n      pop\n        /* \"#utility.yul\":11244:11413   */\n      swap3\n      swap2\n      pop\n      pop\n      jump\t// out\n        /* \"#utility.yul\":11418:11713   */\n    tag_98:\n        /* \"#utility.yul\":11494:11498   */\n      0x00\n        /* \"#utility.yul\":11640:11669   */\n      tag_227\n        /* \"#utility.yul\":11665:11668   */\n      dup4\n        /* \"#utility.yul\":11659:11663   */\n      dup4\n        /* \"#utility.yul\":11640:11669   */\n      tag_97\n      jump\t// in\n    tag_227:\n        /* \"#utility.yul\":11632:11669   */\n      swap2\n      pop\n        /* \"#utility.yul\":11702:11705   */\n      dup3\n        /* \"#utility.yul\":11699:11700   */\n      0x02\n        /* \"#utility.yul\":11695:11706   */\n      mul\n        /* \"#utility.yul\":11689:11693   */\n      dup3\n        /* \"#utility.yul\":11686:11707   */\n      or\n        /* \"#utility.yul\":11678:11707   */\n      swap1\n      pop\n        /* \"#utility.yul\":11418:11713   */\n      swap3\n      swap2\n      pop\n      pop\n      jump\t// out\n        /* \"#utility.yul\":11718:13113   */\n    tag_52:\n        /* \"#utility.yul\":11835:11872   */\n      tag_229\n        /* \"#utility.yul\":11868:11871   */\n      dup3\n        /* \"#utility.yul\":11835:11872   */\n      tag_72\n      jump\t// in\n    tag_229:\n        /* \"#utility.yul\":11937:11955   */\n      0xffffffffffffffff\n        /* \"#utility.yul\":11929:11935   */\n      dup2\n        /* \"#utility.yul\":11926:11956   */\n      gt\n        /* \"#utility.yul\":11923:11979   */\n      iszero\n      tag_230\n      jumpi\n        /* \"#utility.yul\":11959:11977   */\n      tag_231\n      tag_60\n      jump\t// in\n    tag_231:\n        /* \"#utility.yul\":11923:11979   */\n    tag_230:\n        /* \"#utility.yul\":12003:12041   */\n      tag_232\n        /* \"#utility.yul\":12035:12039   */\n      dup3\n        /* \"#utility.yul\":12029:12040   */\n      sload\n        /* \"#utility.yul\":12003:12041   */\n      tag_33\n      jump\t// in\n    tag_232:\n        /* \"#utility.yul\":12088:12155   */\n      tag_233\n        /* \"#utility.yul\":12148:12154   */\n      dup3\n        /* \"#utility.yul\":12140:12146   */\n      dup3\n        /* \"#utility.yul\":12134:12138   */\n      dup6\n        /* \"#utility.yul\":12088:12155   */\n      tag_95\n      jump\t// in\n    tag_233:\n        /* \"#utility.yul\":12182:12183   */\n      0x00\n        /* \"#utility.yul\":12206:12210   */\n      0x20\n        /* \"#utility.yul\":12193:12210   */\n      swap1\n      pop\n        /* \"#utility.yul\":12238:12240   */\n      0x1f\n        /* \"#utility.yul\":12230:12236   */\n      dup4\n        /* \"#utility.yul\":12227:12241   */\n      gt\n        /* \"#utility.yul\":12255:12256   */\n      0x01\n        /* \"#utility.yul\":12250:12868   */\n      dup2\n      eq\n      tag_235\n      jumpi\n        /* \"#utility.yul\":12912:12913   */\n      0x00\n        /* \"#utility.yul\":12929:12935   */\n      dup5\n        /* \"#utility.yul\":12926:13003   */\n      iszero\n      tag_236\n      jumpi\n        /* \"#utility.yul\":12978:12987   */\n      dup3\n        /* \"#utility.yul\":12973:12976   */\n      dup8\n        /* \"#utility.yul\":12969:12988   */\n      add\n        /* \"#utility.yul\":12963:12989   */\n      mload\n        /* \"#utility.yul\":12954:12989   */\n      swap1\n      pop\n        /* \"#utility.yul\":12926:13003   */\n    tag_236:\n        /* \"#utility.yul\":13029:13096   */\n      tag_237\n        /* \"#utility.yul\":13089:13095   */\n      dup6\n        /* \"#utility.yul\":13082:13087   */\n      dup3\n        /* \"#utility.yul\":13029:13096   */\n      tag_98\n      jump\t// in\n    tag_237:\n        /* \"#utility.yul\":13023:13027   */\n      dup7\n        /* \"#utility.yul\":13016:13097   */\n      sstore\n        /* \"#utility.yul\":12885:13107   */\n      pop\n        /* \"#utility.yul\":12220:13107   */\n      jump(tag_234)\n        /* \"#utility.yul\":12250:12868   */\n    tag_235:\n        /* \"#utility.yul\":12302:12306   */\n      0x1f\n        /* \"#utility.yul\":12298:12307   */\n      not\n        /* \"#utility.yul\":12290:12296   */\n      dup5\n        /* \"#utility.yul\":12286:12308   */\n      and\n        /* \"#utility.yul\":12336:12373   */\n      tag_238\n        /* \"#utility.yul\":12368:12372   */\n      dup7\n        /* \"#utility.yul\":12336:12373   */\n      tag_83\n      jump\t// in\n    tag_238:\n        /* \"#utility.yul\":12395:12396   */\n      0x00\n        /* \"#utility.yul\":12409:12617   */\n    tag_239:\n        /* \"#utility.yul\":12423:12430   */\n      dup3\n        /* \"#utility.yul\":12420:12421   */\n      dup2\n        /* \"#utility.yul\":12417:12431   */\n      lt\n        /* \"#utility.yul\":12409:12617   */\n      iszero\n      tag_241\n      jumpi\n        /* \"#utility.yul\":12502:12511   */\n      dup5\n        /* \"#utility.yul\":12497:12500   */\n      dup10\n        /* \"#utility.yul\":12493:12512   */\n      add\n        /* \"#utility.yul\":12487:12513   */\n      mload\n        /* \"#utility.yul\":12479:12485   */\n      dup3\n        /* \"#utility.yul\":12472:12514   */\n      sstore\n        /* \"#utility.yul\":12553:12554   */\n      0x01\n        /* \"#utility.yul\":12545:12551   */\n      dup3\n        /* \"#utility.yul\":12541:12555   */\n      add\n        /* \"#utility.yul\":12531:12555   */\n      swap2\n      pop\n        /* \"#utility.yul\":12600:12602   */\n      0x20\n        /* \"#utility.yul\":12589:12598   */\n      dup6\n        /* \"#utility.yul\":12585:12603   */\n      add\n        /* \"#utility.yul\":12572:12603   */\n      swap5\n      pop\n        /* \"#utility.yul\":12446:12450   */\n      0x20\n        /* \"#utility.yul\":12443:12444   */\n      dup2\n        /* \"#utility.yul\":12439:12451   */\n      add\n        /* \"#utility.yul\":12434:12451   */\n      swap1\n      pop\n        /* \"#utility.yul\":12409:12617   */\n      jump(tag_239)\n    tag_241:\n        /* \"#utility.yul\":12645:12651   */\n      dup7\n        /* \"#utility.yul\":12636:12643   */\n      dup4\n        /* \"#utility.yul\":12633:12652   */\n      lt\n        /* \"#utility.yul\":12630:12809   */\n      iszero\n      tag_242\n      jumpi\n        /* \"#utility.yul\":12703:12712   */\n      dup5\n        /* \"#utility.yul\":12698:12701   */\n      dup10\n        /* \"#utility.yul\":12694:12713   */\n      add\n        /* \"#utility.yul\":12688:12714   */\n      mload\n        /* \"#utility.yul\":12746:12794   */\n      tag_243\n        /* \"#utility.yul\":12788:12792   */\n      0x1f\n        /* \"#utility.yul\":12780:12786   */\n      dup10\n        /* \"#utility.yul\":12776:12793   */\n      and\n        /* \"#utility.yul\":12765:12774   */\n      dup3\n        /* \"#utility.yul\":12746:12794   */\n      tag_97\n      jump\t// in\n    tag_243:\n        /* \"#utility.yul\":12738:12744   */\n      dup4\n        /* \"#utility.yul\":12731:12795   */\n      sstore\n        /* \"#utility.yul\":12653:12809   */\n      pop\n        /* \"#utility.yul\":12630:12809   */\n    tag_242:\n        /* \"#utility.yul\":12855:12856   */\n      0x01\n        /* \"#utility.yul\":12851:12852   */\n      0x02\n        /* \"#utility.yul\":12843:12849   */\n      dup9\n        /* \"#utility.yul\":12839:12853   */\n      mul\n        /* \"#utility.yul\":12835:12857   */\n      add\n        /* \"#utility.yul\":12829:12833   */\n      dup9\n        /* \"#utility.yul\":12822:12858   */\n      sstore\n        /* \"#utility.yul\":12257:12868   */\n      pop\n      pop\n      pop\n        /* \"#utility.yul\":12220:13107   */\n    tag_234:\n      pop\n        /* \"#utility.yul\":11810:13113   */\n      pop\n      pop\n      pop\n        /* \"#utility.yul\":11718:13113   */\n      pop\n      pop\n      jump\t// out\n\n    auxdata: 0xa26469706673582212200031171a37d4174196dd96a8e2ca824c09d360ae89b3272b308a81626c8d82d264736f6c63430008110033\n}\n",
				"bytecode": {
					"linkReferences": {},
					"object": "608060405234801561001057600080fd5b50336000806101000a81548173ffffffffffffffffffffffffffffffffffffffff021916908373ffffffffffffffffffffffffffffffffffffffff160217905550610b3b806100606000396000f3fe608060405234801561001057600080fd5b50600436106100415760003560e01c806395d8cc9c14610046578063ace1885114610062578063d55c5d5014610092575b600080fd5b610060600480360381019061005b9190610545565b6100c4565b005b61007c60048036038101906100779190610545565b610167565b60405161008991906105a9565b60405180910390f35b6100ac60048036038101906100a791906105fa565b61019c565b6040516100bb939291906106a6565b60405180910390f35b60008054906101000a900473ffffffffffffffffffffffffffffffffffffffff1673ffffffffffffffffffffffffffffffffffffffff163373ffffffffffffffffffffffffffffffffffffffff1614610152576040517f08c379a00000000000000000000000000000000000000000000000000000000081526004016101499061075d565b60405180910390fd5b61016461015e826102e3565b8261033c565b50565b600060016000610176846102e3565b815260200190815260200160002060020160009054906101000a900460ff169050919050565b60016020528060005260406000206000915090508060000180546101bf906107ac565b80601f01602080910402602001604051908101604052809291908181526020018280546101eb906107ac565b80156102385780601f1061020d57610100808354040283529160200191610238565b820191906000526020600020905b81548152906001019060200180831161021b57829003601f168201915b50505050509080600101805461024d906107ac565b80601f0160208091040260200160405190810160405280929190818152602001828054610279906107ac565b80156102c65780601f1061029b576101008083540402835291602001916102c6565b820191906000526020600020905b8154815290600101906020018083116102a957829003601f168201915b5050505050908060020160009054906101000a900460ff16905083565b60006002826040516102f59190610824565b602060405180830381855afa158015610312573d6000803e3d6000fd5b5050506040513d601f19601f820116820180604052508101906103359190610850565b9050919050565b8060016000848152602001908152602001600020600001908161035f9190610a33565b506040518060400160405280600f81526020017f53756461682074657264616674617200000000000000000000000000000000008152506001600084815260200190815260200160002060010190816103b89190610a33565b50600180600084815260200190815260200160002060020160006101000a81548160ff0219169083151502179055505050565b6000604051905090565b600080fd5b600080fd5b600080fd5b600080fd5b6000601f19601f8301169050919050565b7f4e487b7100000000000000000000000000000000000000000000000000000000600052604160045260246000fd5b61045282610409565b810181811067ffffffffffffffff821117156104715761047061041a565b5b80604052505050565b60006104846103eb565b90506104908282610449565b919050565b600067ffffffffffffffff8211156104b0576104af61041a565b5b6104b982610409565b9050602081019050919050565b82818337600083830152505050565b60006104e86104e384610495565b61047a565b90508281526020810184848401111561050457610503610404565b5b61050f8482856104c6565b509392505050565b600082601f83011261052c5761052b6103ff565b5b813561053c8482602086016104d5565b91505092915050565b60006020828403121561055b5761055a6103f5565b5b600082013567ffffffffffffffff811115610579576105786103fa565b5b61058584828501610517565b91505092915050565b60008115159050919050565b6105a38161058e565b82525050565b60006020820190506105be600083018461059a565b92915050565b6000819050919050565b6105d7816105c4565b81146105e257600080fd5b50565b6000813590506105f4816105ce565b92915050565b6000602082840312156106105761060f6103f5565b5b600061061e848285016105e5565b91505092915050565b600081519050919050565b600082825260208201905092915050565b60005b83811015610661578082015181840152602081019050610646565b60008484015250505050565b600061067882610627565b6106828185610632565b9350610692818560208601610643565b61069b81610409565b840191505092915050565b600060608201905081810360008301526106c0818661066d565b905081810360208301526106d4818561066d565b90506106e3604083018461059a565b949350505050565b7f48616e79612061646472657373206f776e65722079616e672062697361206d6560008201527f6e6a616c616e6b616e2100000000000000000000000000000000000000000000602082015250565b6000610747602a83610632565b9150610752826106eb565b604082019050919050565b600060208201905081810360008301526107768161073a565b9050919050565b7f4e487b7100000000000000000000000000000000000000000000000000000000600052602260045260246000fd5b600060028204905060018216806107c457607f821691505b6020821081036107d7576107d661077d565b5b50919050565b600081519050919050565b600081905092915050565b60006107fe826107dd565b61080881856107e8565b9350610818818560208601610643565b80840191505092915050565b600061083082846107f3565b915081905092915050565b60008151905061084a816105ce565b92915050565b600060208284031215610866576108656103f5565b5b60006108748482850161083b565b91505092915050565b60008190508160005260206000209050919050565b60006020601f8301049050919050565b600082821b905092915050565b6000600883026108df7fffffffffffffffffffffffffffffffffffffffffffffffffffffffffffffffff826108a2565b6108e986836108a2565b95508019841693508086168417925050509392505050565b6000819050919050565b6000819050919050565b600061093061092b61092684610901565b61090b565b610901565b9050919050565b6000819050919050565b61094a83610915565b61095e61095682610937565b8484546108af565b825550505050565b600090565b610973610966565b61097e818484610941565b505050565b5b818110156109a25761099760008261096b565b600181019050610984565b5050565b601f8211156109e7576109b88161087d565b6109c184610892565b810160208510156109d0578190505b6109e46109dc85610892565b830182610983565b50505b505050565b600082821c905092915050565b6000610a0a600019846008026109ec565b1980831691505092915050565b6000610a2383836109f9565b9150826002028217905092915050565b610a3c82610627565b67ffffffffffffffff811115610a5557610a5461041a565b5b610a5f82546107ac565b610a6a8282856109a6565b600060209050601f831160018114610a9d5760008415610a8b578287015190505b610a958582610a17565b865550610afd565b601f198416610aab8661087d565b60005b82811015610ad357848901518255600182019150602085019450602081019050610aae565b86831015610af05784890151610aec601f8916826109f9565b8355505b6001600288020188555050505b50505050505056fea26469706673582212200031171a37d4174196dd96a8e2ca824c09d360ae89b3272b308a81626c8d82d264736f6c63430008110033",
					"opcodes": "PUSH1 0x80 PUSH1 0x40 MSTORE CALLVALUE DUP1 ISZERO PUSH2 0x10 JUMPI PUSH1 0x0 DUP1 REVERT JUMPDEST POP CALLER PUSH1 0x0 DUP1 PUSH2 0x100 EXP DUP2 SLOAD DUP2 PUSH20 0xFFFFFFFFFFFFFFFFFFFFFFFFFFFFFFFFFFFFFFFF MUL NOT AND SWAP1 DUP4 PUSH20 0xFFFFFFFFFFFFFFFFFFFFFFFFFFFFFFFFFFFFFFFF AND MUL OR SWAP1 SSTORE POP PUSH2 0xB3B DUP1 PUSH2 0x60 PUSH1 0x0 CODECOPY PUSH1 0x0 RETURN INVALID PUSH1 0x80 PUSH1 0x40 MSTORE CALLVALUE DUP1 ISZERO PUSH2 0x10 JUMPI PUSH1 0x0 DUP1 REVERT JUMPDEST POP PUSH1 0x4 CALLDATASIZE LT PUSH2 0x41 JUMPI PUSH1 0x0 CALLDATALOAD PUSH1 0xE0 SHR DUP1 PUSH4 0x95D8CC9C EQ PUSH2 0x46 JUMPI DUP1 PUSH4 0xACE18851 EQ PUSH2 0x62 JUMPI DUP1 PUSH4 0xD55C5D50 EQ PUSH2 0x92 JUMPI JUMPDEST PUSH1 0x0 DUP1 REVERT JUMPDEST PUSH2 0x60 PUSH1 0x4 DUP1 CALLDATASIZE SUB DUP2 ADD SWAP1 PUSH2 0x5B SWAP2 SWAP1 PUSH2 0x545 JUMP JUMPDEST PUSH2 0xC4 JUMP JUMPDEST STOP JUMPDEST PUSH2 0x7C PUSH1 0x4 DUP1 CALLDATASIZE SUB DUP2 ADD SWAP1 PUSH2 0x77 SWAP2 SWAP1 PUSH2 0x545 JUMP JUMPDEST PUSH2 0x167 JUMP JUMPDEST PUSH1 0x40 MLOAD PUSH2 0x89 SWAP2 SWAP1 PUSH2 0x5A9 JUMP JUMPDEST PUSH1 0x40 MLOAD DUP1 SWAP2 SUB SWAP1 RETURN JUMPDEST PUSH2 0xAC PUSH1 0x4 DUP1 CALLDATASIZE SUB DUP2 ADD SWAP1 PUSH2 0xA7 SWAP2 SWAP1 PUSH2 0x5FA JUMP JUMPDEST PUSH2 0x19C JUMP JUMPDEST PUSH1 0x40 MLOAD PUSH2 0xBB SWAP4 SWAP3 SWAP2 SWAP1 PUSH2 0x6A6 JUMP JUMPDEST PUSH1 0x40 MLOAD DUP1 SWAP2 SUB SWAP1 RETURN JUMPDEST PUSH1 0x0 DUP1 SLOAD SWAP1 PUSH2 0x100 EXP SWAP1 DIV PUSH20 0xFFFFFFFFFFFFFFFFFFFFFFFFFFFFFFFFFFFFFFFF AND PUSH20 0xFFFFFFFFFFFFFFFFFFFFFFFFFFFFFFFFFFFFFFFF AND CALLER PUSH20 0xFFFFFFFFFFFFFFFFFFFFFFFFFFFFFFFFFFFFFFFF AND EQ PUSH2 0x152 JUMPI PUSH1 0x40 MLOAD PUSH32 0x8C379A000000000000000000000000000000000000000000000000000000000 DUP2 MSTORE PUSH1 0x4 ADD PUSH2 0x149 SWAP1 PUSH2 0x75D JUMP JUMPDEST PUSH1 0x40 MLOAD DUP1 SWAP2 SUB SWAP1 REVERT JUMPDEST PUSH2 0x164 PUSH2 0x15E DUP3 PUSH2 0x2E3 JUMP JUMPDEST DUP3 PUSH2 0x33C JUMP JUMPDEST POP JUMP JUMPDEST PUSH1 0x0 PUSH1 0x1 PUSH1 0x0 PUSH2 0x176 DUP5 PUSH2 0x2E3 JUMP JUMPDEST DUP2 MSTORE PUSH1 0x20 ADD SWAP1 DUP2 MSTORE PUSH1 0x20 ADD PUSH1 0x0 KECCAK256 PUSH1 0x2 ADD PUSH1 0x0 SWAP1 SLOAD SWAP1 PUSH2 0x100 EXP SWAP1 DIV PUSH1 0xFF AND SWAP1 POP SWAP2 SWAP1 POP JUMP JUMPDEST PUSH1 0x1 PUSH1 0x20 MSTORE DUP1 PUSH1 0x0 MSTORE PUSH1 0x40 PUSH1 0x0 KECCAK256 PUSH1 0x0 SWAP2 POP SWAP1 POP DUP1 PUSH1 0x0 ADD DUP1 SLOAD PUSH2 0x1BF SWAP1 PUSH2 0x7AC JUMP JUMPDEST DUP1 PUSH1 0x1F ADD PUSH1 0x20 DUP1 SWAP2 DIV MUL PUSH1 0x20 ADD PUSH1 0x40 MLOAD SWAP1 DUP2 ADD PUSH1 0x40 MSTORE DUP1 SWAP3 SWAP2 SWAP1 DUP2 DUP2 MSTORE PUSH1 0x20 ADD DUP3 DUP1 SLOAD PUSH2 0x1EB SWAP1 PUSH2 0x7AC JUMP JUMPDEST DUP1 ISZERO PUSH2 0x238 JUMPI DUP1 PUSH1 0x1F LT PUSH2 0x20D JUMPI PUSH2 0x100 DUP1 DUP4 SLOAD DIV MUL DUP4 MSTORE SWAP2 PUSH1 0x20 ADD SWAP2 PUSH2 0x238 JUMP JUMPDEST DUP3 ADD SWAP2 SWAP1 PUSH1 0x0 MSTORE PUSH1 0x20 PUSH1 0x0 KECCAK256 SWAP1 JUMPDEST DUP2 SLOAD DUP2 MSTORE SWAP1 PUSH1 0x1 ADD SWAP1 PUSH1 0x20 ADD DUP1 DUP4 GT PUSH2 0x21B JUMPI DUP3 SWAP1 SUB PUSH1 0x1F AND DUP3 ADD SWAP2 JUMPDEST POP POP POP POP POP SWAP1 DUP1 PUSH1 0x1 ADD DUP1 SLOAD PUSH2 0x24D SWAP1 PUSH2 0x7AC JUMP JUMPDEST DUP1 PUSH1 0x1F ADD PUSH1 0x20 DUP1 SWAP2 DIV MUL PUSH1 0x20 ADD PUSH1 0x40 MLOAD SWAP1 DUP2 ADD PUSH1 0x40 MSTORE DUP1 SWAP3 SWAP2 SWAP1 DUP2 DUP2 MSTORE PUSH1 0x20 ADD DUP3 DUP1 SLOAD PUSH2 0x279 SWAP1 PUSH2 0x7AC JUMP JUMPDEST DUP1 ISZERO PUSH2 0x2C6 JUMPI DUP1 PUSH1 0x1F LT PUSH2 0x29B JUMPI PUSH2 0x100 DUP1 DUP4 SLOAD DIV MUL DUP4 MSTORE SWAP2 PUSH1 0x20 ADD SWAP2 PUSH2 0x2C6 JUMP JUMPDEST DUP3 ADD SWAP2 SWAP1 PUSH1 0x0 MSTORE PUSH1 0x20 PUSH1 0x0 KECCAK256 SWAP1 JUMPDEST DUP2 SLOAD DUP2 MSTORE SWAP1 PUSH1 0x1 ADD SWAP1 PUSH1 0x20 ADD DUP1 DUP4 GT PUSH2 0x2A9 JUMPI DUP3 SWAP1 SUB PUSH1 0x1F AND DUP3 ADD SWAP2 JUMPDEST POP POP POP POP POP SWAP1 DUP1 PUSH1 0x2 ADD PUSH1 0x0 SWAP1 SLOAD SWAP1 PUSH2 0x100 EXP SWAP1 DIV PUSH1 0xFF AND SWAP1 POP DUP4 JUMP JUMPDEST PUSH1 0x0 PUSH1 0x2 DUP3 PUSH1 0x40 MLOAD PUSH2 0x2F5 SWAP2 SWAP1 PUSH2 0x824 JUMP JUMPDEST PUSH1 0x20 PUSH1 0x40 MLOAD DUP1 DUP4 SUB DUP2 DUP6 GAS STATICCALL ISZERO DUP1 ISZERO PUSH2 0x312 JUMPI RETURNDATASIZE PUSH1 0x0 DUP1 RETURNDATACOPY RETURNDATASIZE PUSH1 0x0 REVERT JUMPDEST POP POP POP PUSH1 0x40 MLOAD RETURNDATASIZE PUSH1 0x1F NOT PUSH1 0x1F DUP3 ADD AND DUP3 ADD DUP1 PUSH1 0x40 MSTORE POP DUP2 ADD SWAP1 PUSH2 0x335 SWAP2 SWAP1 PUSH2 0x850 JUMP JUMPDEST SWAP1 POP SWAP2 SWAP1 POP JUMP JUMPDEST DUP1 PUSH1 0x1 PUSH1 0x0 DUP5 DUP2 MSTORE PUSH1 0x20 ADD SWAP1 DUP2 MSTORE PUSH1 0x20 ADD PUSH1 0x0 KECCAK256 PUSH1 0x0 ADD SWAP1 DUP2 PUSH2 0x35F SWAP2 SWAP1 PUSH2 0xA33 JUMP JUMPDEST POP PUSH1 0x40 MLOAD DUP1 PUSH1 0x40 ADD PUSH1 0x40 MSTORE DUP1 PUSH1 0xF DUP2 MSTORE PUSH1 0x20 ADD PUSH32 0x5375646168207465726461667461720000000000000000000000000000000000 DUP2 MSTORE POP PUSH1 0x1 PUSH1 0x0 DUP5 DUP2 MSTORE PUSH1 0x20 ADD SWAP1 DUP2 MSTORE PUSH1 0x20 ADD PUSH1 0x0 KECCAK256 PUSH1 0x1 ADD SWAP1 DUP2 PUSH2 0x3B8 SWAP2 SWAP1 PUSH2 0xA33 JUMP JUMPDEST POP PUSH1 0x1 DUP1 PUSH1 0x0 DUP5 DUP2 MSTORE PUSH1 0x20 ADD SWAP1 DUP2 MSTORE PUSH1 0x20 ADD PUSH1 0x0 KECCAK256 PUSH1 0x2 ADD PUSH1 0x0 PUSH2 0x100 EXP DUP2 SLOAD DUP2 PUSH1 0xFF MUL NOT AND SWAP1 DUP4 ISZERO ISZERO MUL OR SWAP1 SSTORE POP POP POP JUMP JUMPDEST PUSH1 0x0 PUSH1 0x40 MLOAD SWAP1 POP SWAP1 JUMP JUMPDEST PUSH1 0x0 DUP1 REVERT JUMPDEST PUSH1 0x0 DUP1 REVERT JUMPDEST PUSH1 0x0 DUP1 REVERT JUMPDEST PUSH1 0x0 DUP1 REVERT JUMPDEST PUSH1 0x0 PUSH1 0x1F NOT PUSH1 0x1F DUP4 ADD AND SWAP1 POP SWAP2 SWAP1 POP JUMP JUMPDEST PUSH32 0x4E487B7100000000000000000000000000000000000000000000000000000000 PUSH1 0x0 MSTORE PUSH1 0x41 PUSH1 0x4 MSTORE PUSH1 0x24 PUSH1 0x0 REVERT JUMPDEST PUSH2 0x452 DUP3 PUSH2 0x409 JUMP JUMPDEST DUP2 ADD DUP2 DUP2 LT PUSH8 0xFFFFFFFFFFFFFFFF DUP3 GT OR ISZERO PUSH2 0x471 JUMPI PUSH2 0x470 PUSH2 0x41A JUMP JUMPDEST JUMPDEST DUP1 PUSH1 0x40 MSTORE POP POP POP JUMP JUMPDEST PUSH1 0x0 PUSH2 0x484 PUSH2 0x3EB JUMP JUMPDEST SWAP1 POP PUSH2 0x490 DUP3 DUP3 PUSH2 0x449 JUMP JUMPDEST SWAP2 SWAP1 POP JUMP JUMPDEST PUSH1 0x0 PUSH8 0xFFFFFFFFFFFFFFFF DUP3 GT ISZERO PUSH2 0x4B0 JUMPI PUSH2 0x4AF PUSH2 0x41A JUMP JUMPDEST JUMPDEST PUSH2 0x4B9 DUP3 PUSH2 0x409 JUMP JUMPDEST SWAP1 POP PUSH1 0x20 DUP2 ADD SWAP1 POP SWAP2 SWAP1 POP JUMP JUMPDEST DUP3 DUP2 DUP4 CALLDATACOPY PUSH1 0x0 DUP4 DUP4 ADD MSTORE POP POP POP JUMP JUMPDEST PUSH1 0x0 PUSH2 0x4E8 PUSH2 0x4E3 DUP5 PUSH2 0x495 JUMP JUMPDEST PUSH2 0x47A JUMP JUMPDEST SWAP1 POP DUP3 DUP2 MSTORE PUSH1 0x20 DUP2 ADD DUP5 DUP5 DUP5 ADD GT ISZERO PUSH2 0x504 JUMPI PUSH2 0x503 PUSH2 0x404 JUMP JUMPDEST JUMPDEST PUSH2 0x50F DUP5 DUP3 DUP6 PUSH2 0x4C6 JUMP JUMPDEST POP SWAP4 SWAP3 POP POP POP JUMP JUMPDEST PUSH1 0x0 DUP3 PUSH1 0x1F DUP4 ADD SLT PUSH2 0x52C JUMPI PUSH2 0x52B PUSH2 0x3FF JUMP JUMPDEST JUMPDEST DUP2 CALLDATALOAD PUSH2 0x53C DUP5 DUP3 PUSH1 0x20 DUP7 ADD PUSH2 0x4D5 JUMP JUMPDEST SWAP2 POP POP SWAP3 SWAP2 POP POP JUMP JUMPDEST PUSH1 0x0 PUSH1 0x20 DUP3 DUP5 SUB SLT ISZERO PUSH2 0x55B JUMPI PUSH2 0x55A PUSH2 0x3F5 JUMP JUMPDEST JUMPDEST PUSH1 0x0 DUP3 ADD CALLDATALOAD PUSH8 0xFFFFFFFFFFFFFFFF DUP2 GT ISZERO PUSH2 0x579 JUMPI PUSH2 0x578 PUSH2 0x3FA JUMP JUMPDEST JUMPDEST PUSH2 0x585 DUP5 DUP3 DUP6 ADD PUSH2 0x517 JUMP JUMPDEST SWAP2 POP POP SWAP3 SWAP2 POP POP JUMP JUMPDEST PUSH1 0x0 DUP2 ISZERO ISZERO SWAP1 POP SWAP2 SWAP1 POP JUMP JUMPDEST PUSH2 0x5A3 DUP2 PUSH2 0x58E JUMP JUMPDEST DUP3 MSTORE POP POP JUMP JUMPDEST PUSH1 0x0 PUSH1 0x20 DUP3 ADD SWAP1 POP PUSH2 0x5BE PUSH1 0x0 DUP4 ADD DUP5 PUSH2 0x59A JUMP JUMPDEST SWAP3 SWAP2 POP POP JUMP JUMPDEST PUSH1 0x0 DUP2 SWAP1 POP SWAP2 SWAP1 POP JUMP JUMPDEST PUSH2 0x5D7 DUP2 PUSH2 0x5C4 JUMP JUMPDEST DUP2 EQ PUSH2 0x5E2 JUMPI PUSH1 0x0 DUP1 REVERT JUMPDEST POP JUMP JUMPDEST PUSH1 0x0 DUP2 CALLDATALOAD SWAP1 POP PUSH2 0x5F4 DUP2 PUSH2 0x5CE JUMP JUMPDEST SWAP3 SWAP2 POP POP JUMP JUMPDEST PUSH1 0x0 PUSH1 0x20 DUP3 DUP5 SUB SLT ISZERO PUSH2 0x610 JUMPI PUSH2 0x60F PUSH2 0x3F5 JUMP JUMPDEST JUMPDEST PUSH1 0x0 PUSH2 0x61E DUP5 DUP3 DUP6 ADD PUSH2 0x5E5 JUMP JUMPDEST SWAP2 POP POP SWAP3 SWAP2 POP POP JUMP JUMPDEST PUSH1 0x0 DUP2 MLOAD SWAP1 POP SWAP2 SWAP1 POP JUMP JUMPDEST PUSH1 0x0 DUP3 DUP3 MSTORE PUSH1 0x20 DUP3 ADD SWAP1 POP SWAP3 SWAP2 POP POP JUMP JUMPDEST PUSH1 0x0 JUMPDEST DUP4 DUP2 LT ISZERO PUSH2 0x661 JUMPI DUP1 DUP3 ADD MLOAD DUP2 DUP5 ADD MSTORE PUSH1 0x20 DUP2 ADD SWAP1 POP PUSH2 0x646 JUMP JUMPDEST PUSH1 0x0 DUP5 DUP5 ADD MSTORE POP POP POP POP JUMP JUMPDEST PUSH1 0x0 PUSH2 0x678 DUP3 PUSH2 0x627 JUMP JUMPDEST PUSH2 0x682 DUP2 DUP6 PUSH2 0x632 JUMP JUMPDEST SWAP4 POP PUSH2 0x692 DUP2 DUP6 PUSH1 0x20 DUP7 ADD PUSH2 0x643 JUMP JUMPDEST PUSH2 0x69B DUP2 PUSH2 0x409 JUMP JUMPDEST DUP5 ADD SWAP2 POP POP SWAP3 SWAP2 POP POP JUMP JUMPDEST PUSH1 0x0 PUSH1 0x60 DUP3 ADD SWAP1 POP DUP2 DUP2 SUB PUSH1 0x0 DUP4 ADD MSTORE PUSH2 0x6C0 DUP2 DUP7 PUSH2 0x66D JUMP JUMPDEST SWAP1 POP DUP2 DUP2 SUB PUSH1 0x20 DUP4 ADD MSTORE PUSH2 0x6D4 DUP2 DUP6 PUSH2 0x66D JUMP JUMPDEST SWAP1 POP PUSH2 0x6E3 PUSH1 0x40 DUP4 ADD DUP5 PUSH2 0x59A JUMP JUMPDEST SWAP5 SWAP4 POP POP POP POP JUMP JUMPDEST PUSH32 0x48616E79612061646472657373206F776E65722079616E672062697361206D65 PUSH1 0x0 DUP3 ADD MSTORE PUSH32 0x6E6A616C616E6B616E2100000000000000000000000000000000000000000000 PUSH1 0x20 DUP3 ADD MSTORE POP JUMP JUMPDEST PUSH1 0x0 PUSH2 0x747 PUSH1 0x2A DUP4 PUSH2 0x632 JUMP JUMPDEST SWAP2 POP PUSH2 0x752 DUP3 PUSH2 0x6EB JUMP JUMPDEST PUSH1 0x40 DUP3 ADD SWAP1 POP SWAP2 SWAP1 POP JUMP JUMPDEST PUSH1 0x0 PUSH1 0x20 DUP3 ADD SWAP1 POP DUP2 DUP2 SUB PUSH1 0x0 DUP4 ADD MSTORE PUSH2 0x776 DUP2 PUSH2 0x73A JUMP JUMPDEST SWAP1 POP SWAP2 SWAP1 POP JUMP JUMPDEST PUSH32 0x4E487B7100000000000000000000000000000000000000000000000000000000 PUSH1 0x0 MSTORE PUSH1 0x22 PUSH1 0x4 MSTORE PUSH1 0x24 PUSH1 0x0 REVERT JUMPDEST PUSH1 0x0 PUSH1 0x2 DUP3 DIV SWAP1 POP PUSH1 0x1 DUP3 AND DUP1 PUSH2 0x7C4 JUMPI PUSH1 0x7F DUP3 AND SWAP2 POP JUMPDEST PUSH1 0x20 DUP3 LT DUP2 SUB PUSH2 0x7D7 JUMPI PUSH2 0x7D6 PUSH2 0x77D JUMP JUMPDEST JUMPDEST POP SWAP2 SWAP1 POP JUMP JUMPDEST PUSH1 0x0 DUP2 MLOAD SWAP1 POP SWAP2 SWAP1 POP JUMP JUMPDEST PUSH1 0x0 DUP2 SWAP1 POP SWAP3 SWAP2 POP POP JUMP JUMPDEST PUSH1 0x0 PUSH2 0x7FE DUP3 PUSH2 0x7DD JUMP JUMPDEST PUSH2 0x808 DUP2 DUP6 PUSH2 0x7E8 JUMP JUMPDEST SWAP4 POP PUSH2 0x818 DUP2 DUP6 PUSH1 0x20 DUP7 ADD PUSH2 0x643 JUMP JUMPDEST DUP1 DUP5 ADD SWAP2 POP POP SWAP3 SWAP2 POP POP JUMP JUMPDEST PUSH1 0x0 PUSH2 0x830 DUP3 DUP5 PUSH2 0x7F3 JUMP JUMPDEST SWAP2 POP DUP2 SWAP1 POP SWAP3 SWAP2 POP POP JUMP JUMPDEST PUSH1 0x0 DUP2 MLOAD SWAP1 POP PUSH2 0x84A DUP2 PUSH2 0x5CE JUMP JUMPDEST SWAP3 SWAP2 POP POP JUMP JUMPDEST PUSH1 0x0 PUSH1 0x20 DUP3 DUP5 SUB SLT ISZERO PUSH2 0x866 JUMPI PUSH2 0x865 PUSH2 0x3F5 JUMP JUMPDEST JUMPDEST PUSH1 0x0 PUSH2 0x874 DUP5 DUP3 DUP6 ADD PUSH2 0x83B JUMP JUMPDEST SWAP2 POP POP SWAP3 SWAP2 POP POP JUMP JUMPDEST PUSH1 0x0 DUP2 SWAP1 POP DUP2 PUSH1 0x0 MSTORE PUSH1 0x20 PUSH1 0x0 KECCAK256 SWAP1 POP SWAP2 SWAP1 POP JUMP JUMPDEST PUSH1 0x0 PUSH1 0x20 PUSH1 0x1F DUP4 ADD DIV SWAP1 POP SWAP2 SWAP1 POP JUMP JUMPDEST PUSH1 0x0 DUP3 DUP3 SHL SWAP1 POP SWAP3 SWAP2 POP POP JUMP JUMPDEST PUSH1 0x0 PUSH1 0x8 DUP4 MUL PUSH2 0x8DF PUSH32 0xFFFFFFFFFFFFFFFFFFFFFFFFFFFFFFFFFFFFFFFFFFFFFFFFFFFFFFFFFFFFFFFF DUP3 PUSH2 0x8A2 JUMP JUMPDEST PUSH2 0x8E9 DUP7 DUP4 PUSH2 0x8A2 JUMP JUMPDEST SWAP6 POP DUP1 NOT DUP5 AND SWAP4 POP DUP1 DUP7 AND DUP5 OR SWAP3 POP POP POP SWAP4 SWAP3 POP POP POP JUMP JUMPDEST PUSH1 0x0 DUP2 SWAP1 POP SWAP2 SWAP1 POP JUMP JUMPDEST PUSH1 0x0 DUP2 SWAP1 POP SWAP2 SWAP1 POP JUMP JUMPDEST PUSH1 0x0 PUSH2 0x930 PUSH2 0x92B PUSH2 0x926 DUP5 PUSH2 0x901 JUMP JUMPDEST PUSH2 0x90B JUMP JUMPDEST PUSH2 0x901 JUMP JUMPDEST SWAP1 POP SWAP2 SWAP1 POP JUMP JUMPDEST PUSH1 0x0 DUP2 SWAP1 POP SWAP2 SWAP1 POP JUMP JUMPDEST PUSH2 0x94A DUP4 PUSH2 0x915 JUMP JUMPDEST PUSH2 0x95E PUSH2 0x956 DUP3 PUSH2 0x937 JUMP JUMPDEST DUP5 DUP5 SLOAD PUSH2 0x8AF JUMP JUMPDEST DUP3 SSTORE POP POP POP POP JUMP JUMPDEST PUSH1 0x0 SWAP1 JUMP JUMPDEST PUSH2 0x973 PUSH2 0x966 JUMP JUMPDEST PUSH2 0x97E DUP2 DUP5 DUP5 PUSH2 0x941 JUMP JUMPDEST POP POP POP JUMP JUMPDEST JUMPDEST DUP2 DUP2 LT ISZERO PUSH2 0x9A2 JUMPI PUSH2 0x997 PUSH1 0x0 DUP3 PUSH2 0x96B JUMP JUMPDEST PUSH1 0x1 DUP2 ADD SWAP1 POP PUSH2 0x984 JUMP JUMPDEST POP POP JUMP JUMPDEST PUSH1 0x1F DUP3 GT ISZERO PUSH2 0x9E7 JUMPI PUSH2 0x9B8 DUP2 PUSH2 0x87D JUMP JUMPDEST PUSH2 0x9C1 DUP5 PUSH2 0x892 JUMP JUMPDEST DUP2 ADD PUSH1 0x20 DUP6 LT ISZERO PUSH2 0x9D0 JUMPI DUP2 SWAP1 POP JUMPDEST PUSH2 0x9E4 PUSH2 0x9DC DUP6 PUSH2 0x892 JUMP JUMPDEST DUP4 ADD DUP3 PUSH2 0x983 JUMP JUMPDEST POP POP JUMPDEST POP POP POP JUMP JUMPDEST PUSH1 0x0 DUP3 DUP3 SHR SWAP1 POP SWAP3 SWAP2 POP POP JUMP JUMPDEST PUSH1 0x0 PUSH2 0xA0A PUSH1 0x0 NOT DUP5 PUSH1 0x8 MUL PUSH2 0x9EC JUMP JUMPDEST NOT DUP1 DUP4 AND SWAP2 POP POP SWAP3 SWAP2 POP POP JUMP JUMPDEST PUSH1 0x0 PUSH2 0xA23 DUP4 DUP4 PUSH2 0x9F9 JUMP JUMPDEST SWAP2 POP DUP3 PUSH1 0x2 MUL DUP3 OR SWAP1 POP SWAP3 SWAP2 POP POP JUMP JUMPDEST PUSH2 0xA3C DUP3 PUSH2 0x627 JUMP JUMPDEST PUSH8 0xFFFFFFFFFFFFFFFF DUP2 GT ISZERO PUSH2 0xA55 JUMPI PUSH2 0xA54 PUSH2 0x41A JUMP JUMPDEST JUMPDEST PUSH2 0xA5F DUP3 SLOAD PUSH2 0x7AC JUMP JUMPDEST PUSH2 0xA6A DUP3 DUP3 DUP6 PUSH2 0x9A6 JUMP JUMPDEST PUSH1 0x0 PUSH1 0x20 SWAP1 POP PUSH1 0x1F DUP4 GT PUSH1 0x1 DUP2 EQ PUSH2 0xA9D JUMPI PUSH1 0x0 DUP5 ISZERO PUSH2 0xA8B JUMPI DUP3 DUP8 ADD MLOAD SWAP1 POP JUMPDEST PUSH2 0xA95 DUP6 DUP3 PUSH2 0xA17 JUMP JUMPDEST DUP7 SSTORE POP PUSH2 0xAFD JUMP JUMPDEST PUSH1 0x1F NOT DUP5 AND PUSH2 0xAAB DUP7 PUSH2 0x87D JUMP JUMPDEST PUSH1 0x0 JUMPDEST DUP3 DUP2 LT ISZERO PUSH2 0xAD3 JUMPI DUP5 DUP10 ADD MLOAD DUP3 SSTORE PUSH1 0x1 DUP3 ADD SWAP2 POP PUSH1 0x20 DUP6 ADD SWAP5 POP PUSH1 0x20 DUP2 ADD SWAP1 POP PUSH2 0xAAE JUMP JUMPDEST DUP7 DUP4 LT ISZERO PUSH2 0xAF0 JUMPI DUP5 DUP10 ADD MLOAD PUSH2 0xAEC PUSH1 0x1F DUP10 AND DUP3 PUSH2 0x9F9 JUMP JUMPDEST DUP4 SSTORE POP JUMPDEST PUSH1 0x1 PUSH1 0x2 DUP9 MUL ADD DUP9 SSTORE POP POP POP JUMPDEST POP POP POP POP POP POP JUMP INVALID LOG2 PUSH5 0x6970667358 0x22 SLT KECCAK256 STOP BALANCE OR BYTE CALLDATACOPY 0xD4 OR COINBASE SWAP7 0xDD SWAP7 0xA8 0xE2 0xCA DUP3 0x4C MULMOD 0xD3 PUSH1 0xAE DUP10 0xB3 0x27 0x2B ADDRESS DUP11 DUP2 PUSH3 0x6C8D82 0xD2 PUSH5 0x736F6C6343 STOP ADDMOD GT STOP CALLER "
				},
				"gasEstimates": {
					"creation": {
						"codeDepositCost": "575000",
						"executionCost": "24872",
						"totalCost": "599872"
					},
					"external": {
						"checkData(string)": "infinite",
						"dataMapping(bytes32)": "infinite",
						"inputString(string)": "infinite"
					},
					"internal": {
						"convertBytes(string memory)": "infinite",
						"storeBytes(bytes32,string memory)": "infinite"
					}
				},
				"methodIdentifiers": {
					"checkData(string)": "ace18851",
					"dataMapping(bytes32)": "d55c5d50",
					"inputString(string)": "95d8cc9c"
				}
			},
			"storageLayout": {
				"storage": [
					{
						"astId": 3,
						"contract": "contracts/DataKaryawan.sol:DataStringbytes32",
						"label": "ownerAddress",
						"offset": 0,
						"slot": "0",
						"type": "t_address"
					},
					{
						"astId": 36,
						"contract": "contracts/DataKaryawan.sol:DataStringbytes32",
						"label": "dataMapping",
						"offset": 0,
						"slot": "1",
						"type": "t_mapping(t_bytes32,t_struct(data)10_storage)"
					}
				],
				"types": {
					"t_address": {
						"encoding": "inplace",
						"label": "address",
						"numberOfBytes": "20"
					},
					"t_bool": {
						"encoding": "inplace",
						"label": "bool",
						"numberOfBytes": "1"
					},
					"t_bytes32": {
						"encoding": "inplace",
						"label": "bytes32",
						"numberOfBytes": "32"
					},
					"t_mapping(t_bytes32,t_struct(data)10_storage)": {
						"encoding": "mapping",
						"key": "t_bytes32",
						"label": "mapping(bytes32 => struct DataStringbytes32.data)",
						"numberOfBytes": "32",
						"value": "t_struct(data)10_storage"
					},
					"t_string_storage": {
						"encoding": "bytes",
						"label": "string",
						"numberOfBytes": "32"
					},
					"t_struct(data)10_storage": {
						"encoding": "inplace",
						"label": "struct DataStringbytes32.data",
						"members": [
							{
								"astId": 5,
								"contract": "contracts/DataKaryawan.sol:DataStringbytes32",
								"label": "name",
								"offset": 0,
								"slot": "0",
								"type": "t_string_storage"
							},
							{
								"astId": 7,
								"contract": "contracts/DataKaryawan.sol:DataStringbytes32",
								"label": "status",
								"offset": 0,
								"slot": "1",
								"type": "t_string_storage"
							},
							{
								"astId": 9,
								"contract": "contracts/DataKaryawan.sol:DataStringbytes32",
								"label": "isValue",
								"offset": 0,
								"slot": "2",
								"type": "t_bool"
							}
						],
						"numberOfBytes": "96"
					}
				}
			},
			"userdoc": {
				"kind": "user",
				"methods": {},
				"version": 1
			}
		}
	}
}